{"contracts/BipTrustTest.sol":{"BipTrustTest":{"abi":[{"inputs":[{"internalType":"address","name":"_oracleIoT","type":"address"}],"stateMutability":"nonpayable","type":"constructor"},{"inputs":[],"name":"InsufficientBalance","type":"error"},{"inputs":[],"name":"InvalidStatus","type":"error"},{"inputs":[],"name":"InvalidValue","type":"error"},{"inputs":[],"name":"InvalidZeroAddress","type":"error"},{"inputs":[],"name":"OnlyClient","type":"error"},{"inputs":[],"name":"OnlyOracle","type":"error"},{"inputs":[{"internalType":"address","name":"owner","type":"address"}],"name":"OwnableInvalidOwner","type":"error"},{"inputs":[{"internalType":"address","name":"account","type":"address"}],"name":"OwnableUnauthorizedAccount","type":"error"},{"inputs":[],"name":"ReentrancyGuardReentrantCall","type":"error"},{"anonymous":false,"inputs":[{"indexed":true,"internalType":"uint256","name":"id","type":"uint256"},{"indexed":true,"internalType":"address","name":"cliente","type":"address"},{"indexed":false,"internalType":"uint256","name":"valorCaucao","type":"uint256"}],"name":"AluguelCriado","type":"event"},{"anonymous":false,"inputs":[{"indexed":true,"internalType":"uint256","name":"id","type":"uint256"},{"indexed":false,"internalType":"uint256","name":"timestampDevolucao","type":"uint256"}],"name":"DevolucaoRegistrada","type":"event"},{"anonymous":false,"inputs":[{"indexed":true,"internalType":"address","name":"oracleAntigo","type":"address"},{"indexed":true,"internalType":"address","name":"oracleNovo","type":"address"}],"name":"OracleAtualizado","type":"event"},{"anonymous":false,"inputs":[{"indexed":true,"internalType":"address","name":"previousOwner","type":"address"},{"indexed":true,"internalType":"address","name":"newOwner","type":"address"}],"name":"OwnershipTransferred","type":"event"},{"anonymous":false,"inputs":[{"indexed":true,"internalType":"uint256","name":"id","type":"uint256"},{"indexed":false,"internalType":"uint256","name":"timestampRetirada","type":"uint256"}],"name":"RetiradaRegistrada","type":"event"},{"anonymous":false,"inputs":[{"indexed":true,"internalType":"address","name":"usuario","type":"address"},{"indexed":false,"internalType":"uint256","name":"valor","type":"uint256"}],"name":"SaqueRealizado","type":"event"},{"anonymous":false,"inputs":[{"indexed":true,"internalType":"uint256","name":"id","type":"uint256"},{"indexed":false,"internalType":"uint256","name":"retidoLocadora","type":"uint256"},{"indexed":false,"internalType":"uint256","name":"liberadoCliente","type":"uint256"}],"name":"VistoriaConfirmada","type":"event"},{"inputs":[{"internalType":"uint256","name":"","type":"uint256"}],"name":"alugueis","outputs":[{"internalType":"uint256","name":"valorCaucao","type":"uint256"},{"internalType":"address","name":"cliente","type":"address"},{"internalType":"uint48","name":"timestampRetirada","type":"uint48"},{"internalType":"uint48","name":"timestampDevolucao","type":"uint48"},{"internalType":"enum BipTrustTest.Status","name":"statusAtual","type":"uint8"}],"stateMutability":"view","type":"function"},{"inputs":[{"internalType":"address","name":"_novoOracle","type":"address"}],"name":"atualizarOracle","outputs":[],"stateMutability":"nonpayable","type":"function"},{"inputs":[{"internalType":"uint256","name":"_id","type":"uint256"},{"internalType":"uint256","name":"_custoDanos","type":"uint256"}],"name":"confirmarVistoria","outputs":[],"stateMutability":"nonpayable","type":"function"},{"inputs":[],"name":"contadorAlugueis","outputs":[{"internalType":"uint256","name":"","type":"uint256"}],"stateMutability":"view","type":"function"},{"inputs":[{"internalType":"uint256","name":"_duracaoEmSegundos","type":"uint256"},{"internalType":"uint256","name":"_multaPorSegundo","type":"uint256"}],"name":"criarAluguel","outputs":[{"internalType":"uint256","name":"","type":"uint256"}],"stateMutability":"payable","type":"function"},{"inputs":[],"name":"oracleIoT","outputs":[{"internalType":"address","name":"","type":"address"}],"stateMutability":"view","type":"function"},{"inputs":[],"name":"owner","outputs":[{"internalType":"address","name":"","type":"address"}],"stateMutability":"view","type":"function"},{"inputs":[{"internalType":"uint256","name":"_id","type":"uint256"}],"name":"registrarDevolucao","outputs":[],"stateMutability":"nonpayable","type":"function"},{"inputs":[{"internalType":"uint256","name":"_id","type":"uint256"}],"name":"registrarRetirada","outputs":[],"stateMutability":"nonpayable","type":"function"},{"inputs":[],"name":"renounceOwnership","outputs":[],"stateMutability":"nonpayable","type":"function"},{"inputs":[],"name":"sacar","outputs":[],"stateMutability":"nonpayable","type":"function"},{"inputs":[{"internalType":"address","name":"","type":"address"}],"name":"saldos","outputs":[{"internalType":"uint256","name":"","type":"uint256"}],"stateMutability":"view","type":"function"},{"inputs":[{"internalType":"address","name":"newOwner","type":"address"}],"name":"transferOwnership","outputs":[],"stateMutability":"nonpayable","type":"function"}],"evm":{"bytecode":{"linkReferences":{},"object":"60806040523480156200001157600080fd5b50604051620018fa380380620018fa8339818101604052810190620000379190620002fa565b33600073ffffffffffffffffffffffffffffffffffffffff168173ffffffffffffffffffffffffffffffffffffffff1603620000ad5760006040517f1e4fbdf7000000000000000000000000000000000000000000000000000000008152600401620000a491906200033d565b60405180910390fd5b620000be816200019760201b60201c565b506001620000e1620000d56200025b60201b60201c565b6200028660201b60201c565b60000181905550600073ffffffffffffffffffffffffffffffffffffffff168173ffffffffffffffffffffffffffffffffffffffff16036200014f576040517ff6b2911f00000000000000000000000000000000000000000000000000000000815260040160405180910390fd5b80600160006101000a81548173ffffffffffffffffffffffffffffffffffffffff021916908373ffffffffffffffffffffffffffffffffffffffff160217905550506200035a565b60008060009054906101000a900473ffffffffffffffffffffffffffffffffffffffff169050816000806101000a81548173ffffffffffffffffffffffffffffffffffffffff021916908373ffffffffffffffffffffffffffffffffffffffff1602179055508173ffffffffffffffffffffffffffffffffffffffff168173ffffffffffffffffffffffffffffffffffffffff167f8be0079c531659141344cd1fd0a4f28419497f9722a3daafe3b4186f6b6457e060405160405180910390a35050565b60007f9b779b17422d0df92223018b32b4d1fa46e071723d6817e2486d003becc55f0060001b905090565b6000819050919050565b600080fd5b600073ffffffffffffffffffffffffffffffffffffffff82169050919050565b6000620002c28262000295565b9050919050565b620002d481620002b5565b8114620002e057600080fd5b50565b600081519050620002f481620002c9565b92915050565b60006020828403121562000313576200031262000290565b5b60006200032384828501620002e3565b91505092915050565b6200033781620002b5565b82525050565b60006020820190506200035460008301846200032c565b92915050565b611590806200036a6000396000f3fe6080604052600436106100c25760003560e01c8063a5a883391161007f578063ccad948611610059578063ccad948614610244578063f1c7db1f1461026d578063f2fde38b1461029d578063ffd21e2c146102c6576100c2565b8063a5a88339146101b5578063bf274aaf146101de578063c68c061214610207576100c2565b8063166c1cfb146100c7578063427d05491461010857806352fb63a814610131578063715018a61461015c5780638da5cb5b14610173578063a51068c81461019e575b600080fd5b3480156100d357600080fd5b506100ee60048036038101906100e99190611158565b6102f1565b6040516100ff95949392919061126d565b60405180910390f35b34801561011457600080fd5b5061012f600480360381019061012a9190611158565b610378565b005b34801561013d57600080fd5b50610146610515565b60405161015391906112c0565b60405180910390f35b34801561016857600080fd5b5061017161051b565b005b34801561017f57600080fd5b5061018861052f565b60405161019591906112db565b60405180910390f35b3480156101aa57600080fd5b506101b3610558565b005b3480156101c157600080fd5b506101dc60048036038101906101d791906112f6565b610729565b005b3480156101ea57600080fd5b5061020560048036038101906102009190611362565b610963565b005b34801561021357600080fd5b5061022e60048036038101906102299190611362565b610a97565b60405161023b91906112c0565b60405180910390f35b34801561025057600080fd5b5061026b60048036038101906102669190611158565b610aaf565b005b610287600480360381019061028291906112f6565b610c4c565b60405161029491906112c0565b60405180910390f35b3480156102a957600080fd5b506102c460048036038101906102bf9190611362565b610e4c565b005b3480156102d257600080fd5b506102db610ed2565b6040516102e891906112db565b60405180910390f35b60036020528060005260406000206000915090508060000154908060010160009054906101000a900473ffffffffffffffffffffffffffffffffffffffff16908060010160149054906101000a900465ffffffffffff169080600101601a9054906101000a900465ffffffffffff16908060020160009054906101000a900460ff16905085565b600160009054906101000a900473ffffffffffffffffffffffffffffffffffffffff1673ffffffffffffffffffffffffffffffffffffffff163373ffffffffffffffffffffffffffffffffffffffff16146103ff576040517f80fee10500000000000000000000000000000000000000000000000000000000815260040160405180910390fd5b60006003600083815260200190815260200160002090506001600481111561042a576104296111f6565b5b8160020160009054906101000a900460ff16600481111561044e5761044d6111f6565b5b14610485576040517ff525e32000000000000000000000000000000000000000000000000000000000815260040160405180910390fd5b4281600101601a6101000a81548165ffffffffffff021916908365ffffffffffff16021790555060028160020160006101000a81548160ff021916908360048111156104d4576104d36111f6565b5b0217905550817fbad34a29de6ce4ae1aea706e5971a3aab5097391b794fff78627feddec9a01914260405161050991906112c0565b60405180910390a25050565b60025481565b610523610ef8565b61052d6000610f7f565b565b60008060009054906101000a900473ffffffffffffffffffffffffffffffffffffffff16905090565b610560611043565b6000600460003373ffffffffffffffffffffffffffffffffffffffff1673ffffffffffffffffffffffffffffffffffffffff168152602001908152602001600020549050600081036105de576040517ff4d678b800000000000000000000000000000000000000000000000000000000815260040160405180910390fd5b6000600460003373ffffffffffffffffffffffffffffffffffffffff1673ffffffffffffffffffffffffffffffffffffffff1681526020019081526020016000208190555060003373ffffffffffffffffffffffffffffffffffffffff1682604051610649906113c0565b60006040518083038185875af1925050503d8060008114610686576040519150601f19603f3d011682016040523d82523d6000602084013e61068b565b606091505b50509050806106cf576040517f08c379a00000000000000000000000000000000000000000000000000000000081526004016106c690611432565b60405180910390fd5b3373ffffffffffffffffffffffffffffffffffffffff167fff12809415c01c2cf89ed7c318b357cb402d1ce96537d1592e9966b4f425e4d48360405161071591906112c0565b60405180910390a25050610727611066565b565b610731610ef8565b610739611043565b600060036000848152602001908152602001600020905060026004811115610764576107636111f6565b5b8160020160009054906101000a900460ff166004811115610788576107876111f6565b5b146107bf576040517ff525e32000000000000000000000000000000000000000000000000000000000815260040160405180910390fd5b80600001548211156107fd576040517faa7feadc00000000000000000000000000000000000000000000000000000000815260040160405180910390fd5b600082905060008183600001546108149190611481565b905060038360020160006101000a81548160ff0219169083600481111561083e5761083d6111f6565b5b0217905550816004600061085061052f565b73ffffffffffffffffffffffffffffffffffffffff1673ffffffffffffffffffffffffffffffffffffffff168152602001908152602001600020600082825461089991906114b5565b9250508190555080600460008560010160009054906101000a900473ffffffffffffffffffffffffffffffffffffffff1673ffffffffffffffffffffffffffffffffffffffff1673ffffffffffffffffffffffffffffffffffffffff168152602001908152602001600020600082825461091391906114b5565b92505081905550847ff1055a66ec02beec68fc5b35f6e986041900ebaef7b37cea35db02354251cea5838360405161094c9291906114e9565b60405180910390a250505061095f611066565b5050565b61096b610ef8565b600073ffffffffffffffffffffffffffffffffffffffff168173ffffffffffffffffffffffffffffffffffffffff16036109d1576040517ff6b2911f00000000000000000000000000000000000000000000000000000000815260040160405180910390fd5b6000600160009054906101000a900473ffffffffffffffffffffffffffffffffffffffff16905081600160006101000a81548173ffffffffffffffffffffffffffffffffffffffff021916908373ffffffffffffffffffffffffffffffffffffffff1602179055508173ffffffffffffffffffffffffffffffffffffffff168173ffffffffffffffffffffffffffffffffffffffff167f2f15fbf5e5cb83c683bccc56f4befaba328796f99ba44631dc7067ddf8218a1460405160405180910390a35050565b60046020528060005260406000206000915090505481565b600160009054906101000a900473ffffffffffffffffffffffffffffffffffffffff1673ffffffffffffffffffffffffffffffffffffffff163373ffffffffffffffffffffffffffffffffffffffff1614610b36576040517f80fee10500000000000000000000000000000000000000000000000000000000815260040160405180910390fd5b600060036000838152602001908152602001600020905060006004811115610b6157610b606111f6565b5b8160020160009054906101000a900460ff166004811115610b8557610b846111f6565b5b14610bbc576040517ff525e32000000000000000000000000000000000000000000000000000000000815260040160405180910390fd5b428160010160146101000a81548165ffffffffffff021916908365ffffffffffff16021790555060018160020160006101000a81548160ff02191690836004811115610c0b57610c0a6111f6565b5b0217905550817fa1b917e7b2f47808acb93469d4be218539b17a4cd31d302ddf391efe7d372d3d42604051610c4091906112c0565b60405180910390a25050565b6000803403610c87576040517faa7feadc00000000000000000000000000000000000000000000000000000000815260040160405180910390fd5b60026000815480929190610c9a90611512565b91905055506040518060a001604052803481526020013373ffffffffffffffffffffffffffffffffffffffff168152602001600065ffffffffffff168152602001600065ffffffffffff16815260200160006004811115610cfe57610cfd6111f6565b5b8152506003600060025481526020019081526020016000206000820151816000015560208201518160010160006101000a81548173ffffffffffffffffffffffffffffffffffffffff021916908373ffffffffffffffffffffffffffffffffffffffff16021790555060408201518160010160146101000a81548165ffffffffffff021916908365ffffffffffff160217905550606082015181600101601a6101000a81548165ffffffffffff021916908365ffffffffffff16021790555060808201518160020160006101000a81548160ff02191690836004811115610de857610de76111f6565b5b02179055509050503373ffffffffffffffffffffffffffffffffffffffff166002547fca7e401818e46f3f45d463ead362dee45a1bf117d7d8608e279e58c45040a7c234604051610e3991906112c0565b60405180910390a3600254905092915050565b610e54610ef8565b600073ffffffffffffffffffffffffffffffffffffffff168173ffffffffffffffffffffffffffffffffffffffff1603610ec65760006040517f1e4fbdf7000000000000000000000000000000000000000000000000000000008152600401610ebd91906112db565b60405180910390fd5b610ecf81610f7f565b50565b600160009054906101000a900473ffffffffffffffffffffffffffffffffffffffff1681565b610f00611081565b73ffffffffffffffffffffffffffffffffffffffff16610f1e61052f565b73ffffffffffffffffffffffffffffffffffffffff1614610f7d57610f41611081565b6040517f118cdaa7000000000000000000000000000000000000000000000000000000008152600401610f7491906112db565b60405180910390fd5b565b60008060009054906101000a900473ffffffffffffffffffffffffffffffffffffffff169050816000806101000a81548173ffffffffffffffffffffffffffffffffffffffff021916908373ffffffffffffffffffffffffffffffffffffffff1602179055508173ffffffffffffffffffffffffffffffffffffffff168173ffffffffffffffffffffffffffffffffffffffff167f8be0079c531659141344cd1fd0a4f28419497f9722a3daafe3b4186f6b6457e060405160405180910390a35050565b61104b611089565b600261105d6110586110ca565b6110f5565b60000181905550565b60016110786110736110ca565b6110f5565b60000181905550565b600033905090565b6110916110ff565b156110c8576040517f3ee5aeb500000000000000000000000000000000000000000000000000000000815260040160405180910390fd5b565b60007f9b779b17422d0df92223018b32b4d1fa46e071723d6817e2486d003becc55f0060001b905090565b6000819050919050565b6000600261111361110e6110ca565b6110f5565b6000015414905090565b600080fd5b6000819050919050565b61113581611122565b811461114057600080fd5b50565b6000813590506111528161112c565b92915050565b60006020828403121561116e5761116d61111d565b5b600061117c84828501611143565b91505092915050565b61118e81611122565b82525050565b600073ffffffffffffffffffffffffffffffffffffffff82169050919050565b60006111bf82611194565b9050919050565b6111cf816111b4565b82525050565b600065ffffffffffff82169050919050565b6111f0816111d5565b82525050565b7f4e487b7100000000000000000000000000000000000000000000000000000000600052602160045260246000fd5b60058110611236576112356111f6565b5b50565b600081905061124782611225565b919050565b600061125782611239565b9050919050565b6112678161124c565b82525050565b600060a0820190506112826000830188611185565b61128f60208301876111c6565b61129c60408301866111e7565b6112a960608301856111e7565b6112b6608083018461125e565b9695505050505050565b60006020820190506112d56000830184611185565b92915050565b60006020820190506112f060008301846111c6565b92915050565b6000806040838503121561130d5761130c61111d565b5b600061131b85828601611143565b925050602061132c85828601611143565b9150509250929050565b61133f816111b4565b811461134a57600080fd5b50565b60008135905061135c81611336565b92915050565b6000602082840312156113785761137761111d565b5b60006113868482850161134d565b91505092915050565b600081905092915050565b50565b60006113aa60008361138f565b91506113b58261139a565b600082019050919050565b60006113cb8261139d565b9150819050919050565b600082825260208201905092915050565b7f5472616e73666572206661696c65640000000000000000000000000000000000600082015250565b600061141c600f836113d5565b9150611427826113e6565b602082019050919050565b6000602082019050818103600083015261144b8161140f565b9050919050565b7f4e487b7100000000000000000000000000000000000000000000000000000000600052601160045260246000fd5b600061148c82611122565b915061149783611122565b92508282039050818111156114af576114ae611452565b5b92915050565b60006114c082611122565b91506114cb83611122565b92508282019050808211156114e3576114e2611452565b5b92915050565b60006040820190506114fe6000830185611185565b61150b6020830184611185565b9392505050565b600061151d82611122565b91507fffffffffffffffffffffffffffffffffffffffffffffffffffffffffffffffff820361154f5761154e611452565b5b60018201905091905056fea26469706673582212208bd5b340a46c2d22fa6af9e359483356c372730e961c8836581199f183a9c72b64736f6c63430008140033","opcodes":"PUSH1 0x80 PUSH1 0x40 MSTORE CALLVALUE DUP1 ISZERO PUSH3 0x11 JUMPI PUSH1 0x0 DUP1 REVERT JUMPDEST POP PUSH1 0x40 MLOAD PUSH3 0x18FA CODESIZE SUB DUP1 PUSH3 0x18FA DUP4 CODECOPY DUP2 DUP2 ADD PUSH1 0x40 MSTORE DUP2 ADD SWAP1 PUSH3 0x37 SWAP2 SWAP1 PUSH3 0x2FA JUMP JUMPDEST CALLER PUSH1 0x0 PUSH20 0xFFFFFFFFFFFFFFFFFFFFFFFFFFFFFFFFFFFFFFFF AND DUP2 PUSH20 0xFFFFFFFFFFFFFFFFFFFFFFFFFFFFFFFFFFFFFFFF AND SUB PUSH3 0xAD JUMPI PUSH1 0x0 PUSH1 0x40 MLOAD PUSH32 0x1E4FBDF700000000000000000000000000000000000000000000000000000000 DUP2 MSTORE PUSH1 0x4 ADD PUSH3 0xA4 SWAP2 SWAP1 PUSH3 0x33D JUMP JUMPDEST PUSH1 0x40 MLOAD DUP1 SWAP2 SUB SWAP1 REVERT JUMPDEST PUSH3 0xBE DUP2 PUSH3 0x197 PUSH1 0x20 SHL PUSH1 0x20 SHR JUMP JUMPDEST POP PUSH1 0x1 PUSH3 0xE1 PUSH3 0xD5 PUSH3 0x25B PUSH1 0x20 SHL PUSH1 0x20 SHR JUMP JUMPDEST PUSH3 0x286 PUSH1 0x20 SHL PUSH1 0x20 SHR JUMP JUMPDEST PUSH1 0x0 ADD DUP2 SWAP1 SSTORE POP PUSH1 0x0 PUSH20 0xFFFFFFFFFFFFFFFFFFFFFFFFFFFFFFFFFFFFFFFF AND DUP2 PUSH20 0xFFFFFFFFFFFFFFFFFFFFFFFFFFFFFFFFFFFFFFFF AND SUB PUSH3 0x14F JUMPI PUSH1 0x40 MLOAD PUSH32 0xF6B2911F00000000000000000000000000000000000000000000000000000000 DUP2 MSTORE PUSH1 0x4 ADD PUSH1 0x40 MLOAD DUP1 SWAP2 SUB SWAP1 REVERT JUMPDEST DUP1 PUSH1 0x1 PUSH1 0x0 PUSH2 0x100 EXP DUP2 SLOAD DUP2 PUSH20 0xFFFFFFFFFFFFFFFFFFFFFFFFFFFFFFFFFFFFFFFF MUL NOT AND SWAP1 DUP4 PUSH20 0xFFFFFFFFFFFFFFFFFFFFFFFFFFFFFFFFFFFFFFFF AND MUL OR SWAP1 SSTORE POP POP PUSH3 0x35A JUMP JUMPDEST PUSH1 0x0 DUP1 PUSH1 0x0 SWAP1 SLOAD SWAP1 PUSH2 0x100 EXP SWAP1 DIV PUSH20 0xFFFFFFFFFFFFFFFFFFFFFFFFFFFFFFFFFFFFFFFF AND SWAP1 POP DUP2 PUSH1 0x0 DUP1 PUSH2 0x100 EXP DUP2 SLOAD DUP2 PUSH20 0xFFFFFFFFFFFFFFFFFFFFFFFFFFFFFFFFFFFFFFFF MUL NOT AND SWAP1 DUP4 PUSH20 0xFFFFFFFFFFFFFFFFFFFFFFFFFFFFFFFFFFFFFFFF AND MUL OR SWAP1 SSTORE POP DUP2 PUSH20 0xFFFFFFFFFFFFFFFFFFFFFFFFFFFFFFFFFFFFFFFF AND DUP2 PUSH20 0xFFFFFFFFFFFFFFFFFFFFFFFFFFFFFFFFFFFFFFFF AND PUSH32 0x8BE0079C531659141344CD1FD0A4F28419497F9722A3DAAFE3B4186F6B6457E0 PUSH1 0x40 MLOAD PUSH1 0x40 MLOAD DUP1 SWAP2 SUB SWAP1 LOG3 POP POP JUMP JUMPDEST PUSH1 0x0 PUSH32 0x9B779B17422D0DF92223018B32B4D1FA46E071723D6817E2486D003BECC55F00 PUSH1 0x0 SHL SWAP1 POP SWAP1 JUMP JUMPDEST PUSH1 0x0 DUP2 SWAP1 POP SWAP2 SWAP1 POP JUMP JUMPDEST PUSH1 0x0 DUP1 REVERT JUMPDEST PUSH1 0x0 PUSH20 0xFFFFFFFFFFFFFFFFFFFFFFFFFFFFFFFFFFFFFFFF DUP3 AND SWAP1 POP SWAP2 SWAP1 POP JUMP JUMPDEST PUSH1 0x0 PUSH3 0x2C2 DUP3 PUSH3 0x295 JUMP JUMPDEST SWAP1 POP SWAP2 SWAP1 POP JUMP JUMPDEST PUSH3 0x2D4 DUP2 PUSH3 0x2B5 JUMP JUMPDEST DUP2 EQ PUSH3 0x2E0 JUMPI PUSH1 0x0 DUP1 REVERT JUMPDEST POP JUMP JUMPDEST PUSH1 0x0 DUP2 MLOAD SWAP1 POP PUSH3 0x2F4 DUP2 PUSH3 0x2C9 JUMP JUMPDEST SWAP3 SWAP2 POP POP JUMP JUMPDEST PUSH1 0x0 PUSH1 0x20 DUP3 DUP5 SUB SLT ISZERO PUSH3 0x313 JUMPI PUSH3 0x312 PUSH3 0x290 JUMP JUMPDEST JUMPDEST PUSH1 0x0 PUSH3 0x323 DUP5 DUP3 DUP6 ADD PUSH3 0x2E3 JUMP JUMPDEST SWAP2 POP POP SWAP3 SWAP2 POP POP JUMP JUMPDEST PUSH3 0x337 DUP2 PUSH3 0x2B5 JUMP JUMPDEST DUP3 MSTORE POP POP JUMP JUMPDEST PUSH1 0x0 PUSH1 0x20 DUP3 ADD SWAP1 POP PUSH3 0x354 PUSH1 0x0 DUP4 ADD DUP5 PUSH3 0x32C JUMP JUMPDEST SWAP3 SWAP2 POP POP JUMP JUMPDEST PUSH2 0x1590 DUP1 PUSH3 0x36A PUSH1 0x0 CODECOPY PUSH1 0x0 RETURN INVALID PUSH1 0x80 PUSH1 0x40 MSTORE PUSH1 0x4 CALLDATASIZE LT PUSH2 0xC2 JUMPI PUSH1 0x0 CALLDATALOAD PUSH1 0xE0 SHR DUP1 PUSH4 0xA5A88339 GT PUSH2 0x7F JUMPI DUP1 PUSH4 0xCCAD9486 GT PUSH2 0x59 JUMPI DUP1 PUSH4 0xCCAD9486 EQ PUSH2 0x244 JUMPI DUP1 PUSH4 0xF1C7DB1F EQ PUSH2 0x26D JUMPI DUP1 PUSH4 0xF2FDE38B EQ PUSH2 0x29D JUMPI DUP1 PUSH4 0xFFD21E2C EQ PUSH2 0x2C6 JUMPI PUSH2 0xC2 JUMP JUMPDEST DUP1 PUSH4 0xA5A88339 EQ PUSH2 0x1B5 JUMPI DUP1 PUSH4 0xBF274AAF EQ PUSH2 0x1DE JUMPI DUP1 PUSH4 0xC68C0612 EQ PUSH2 0x207 JUMPI PUSH2 0xC2 JUMP JUMPDEST DUP1 PUSH4 0x166C1CFB EQ PUSH2 0xC7 JUMPI DUP1 PUSH4 0x427D0549 EQ PUSH2 0x108 JUMPI DUP1 PUSH4 0x52FB63A8 EQ PUSH2 0x131 JUMPI DUP1 PUSH4 0x715018A6 EQ PUSH2 0x15C JUMPI DUP1 PUSH4 0x8DA5CB5B EQ PUSH2 0x173 JUMPI DUP1 PUSH4 0xA51068C8 EQ PUSH2 0x19E JUMPI JUMPDEST PUSH1 0x0 DUP1 REVERT JUMPDEST CALLVALUE DUP1 ISZERO PUSH2 0xD3 JUMPI PUSH1 0x0 DUP1 REVERT JUMPDEST POP PUSH2 0xEE PUSH1 0x4 DUP1 CALLDATASIZE SUB DUP2 ADD SWAP1 PUSH2 0xE9 SWAP2 SWAP1 PUSH2 0x1158 JUMP JUMPDEST PUSH2 0x2F1 JUMP JUMPDEST PUSH1 0x40 MLOAD PUSH2 0xFF SWAP6 SWAP5 SWAP4 SWAP3 SWAP2 SWAP1 PUSH2 0x126D JUMP JUMPDEST PUSH1 0x40 MLOAD DUP1 SWAP2 SUB SWAP1 RETURN JUMPDEST CALLVALUE DUP1 ISZERO PUSH2 0x114 JUMPI PUSH1 0x0 DUP1 REVERT JUMPDEST POP PUSH2 0x12F PUSH1 0x4 DUP1 CALLDATASIZE SUB DUP2 ADD SWAP1 PUSH2 0x12A SWAP2 SWAP1 PUSH2 0x1158 JUMP JUMPDEST PUSH2 0x378 JUMP JUMPDEST STOP JUMPDEST CALLVALUE DUP1 ISZERO PUSH2 0x13D JUMPI PUSH1 0x0 DUP1 REVERT JUMPDEST POP PUSH2 0x146 PUSH2 0x515 JUMP JUMPDEST PUSH1 0x40 MLOAD PUSH2 0x153 SWAP2 SWAP1 PUSH2 0x12C0 JUMP JUMPDEST PUSH1 0x40 MLOAD DUP1 SWAP2 SUB SWAP1 RETURN JUMPDEST CALLVALUE DUP1 ISZERO PUSH2 0x168 JUMPI PUSH1 0x0 DUP1 REVERT JUMPDEST POP PUSH2 0x171 PUSH2 0x51B JUMP JUMPDEST STOP JUMPDEST CALLVALUE DUP1 ISZERO PUSH2 0x17F JUMPI PUSH1 0x0 DUP1 REVERT JUMPDEST POP PUSH2 0x188 PUSH2 0x52F JUMP JUMPDEST PUSH1 0x40 MLOAD PUSH2 0x195 SWAP2 SWAP1 PUSH2 0x12DB JUMP JUMPDEST PUSH1 0x40 MLOAD DUP1 SWAP2 SUB SWAP1 RETURN JUMPDEST CALLVALUE DUP1 ISZERO PUSH2 0x1AA JUMPI PUSH1 0x0 DUP1 REVERT JUMPDEST POP PUSH2 0x1B3 PUSH2 0x558 JUMP JUMPDEST STOP JUMPDEST CALLVALUE DUP1 ISZERO PUSH2 0x1C1 JUMPI PUSH1 0x0 DUP1 REVERT JUMPDEST POP PUSH2 0x1DC PUSH1 0x4 DUP1 CALLDATASIZE SUB DUP2 ADD SWAP1 PUSH2 0x1D7 SWAP2 SWAP1 PUSH2 0x12F6 JUMP JUMPDEST PUSH2 0x729 JUMP JUMPDEST STOP JUMPDEST CALLVALUE DUP1 ISZERO PUSH2 0x1EA JUMPI PUSH1 0x0 DUP1 REVERT JUMPDEST POP PUSH2 0x205 PUSH1 0x4 DUP1 CALLDATASIZE SUB DUP2 ADD SWAP1 PUSH2 0x200 SWAP2 SWAP1 PUSH2 0x1362 JUMP JUMPDEST PUSH2 0x963 JUMP JUMPDEST STOP JUMPDEST CALLVALUE DUP1 ISZERO PUSH2 0x213 JUMPI PUSH1 0x0 DUP1 REVERT JUMPDEST POP PUSH2 0x22E PUSH1 0x4 DUP1 CALLDATASIZE SUB DUP2 ADD SWAP1 PUSH2 0x229 SWAP2 SWAP1 PUSH2 0x1362 JUMP JUMPDEST PUSH2 0xA97 JUMP JUMPDEST PUSH1 0x40 MLOAD PUSH2 0x23B SWAP2 SWAP1 PUSH2 0x12C0 JUMP JUMPDEST PUSH1 0x40 MLOAD DUP1 SWAP2 SUB SWAP1 RETURN JUMPDEST CALLVALUE DUP1 ISZERO PUSH2 0x250 JUMPI PUSH1 0x0 DUP1 REVERT JUMPDEST POP PUSH2 0x26B PUSH1 0x4 DUP1 CALLDATASIZE SUB DUP2 ADD SWAP1 PUSH2 0x266 SWAP2 SWAP1 PUSH2 0x1158 JUMP JUMPDEST PUSH2 0xAAF JUMP JUMPDEST STOP JUMPDEST PUSH2 0x287 PUSH1 0x4 DUP1 CALLDATASIZE SUB DUP2 ADD SWAP1 PUSH2 0x282 SWAP2 SWAP1 PUSH2 0x12F6 JUMP JUMPDEST PUSH2 0xC4C JUMP JUMPDEST PUSH1 0x40 MLOAD PUSH2 0x294 SWAP2 SWAP1 PUSH2 0x12C0 JUMP JUMPDEST PUSH1 0x40 MLOAD DUP1 SWAP2 SUB SWAP1 RETURN JUMPDEST CALLVALUE DUP1 ISZERO PUSH2 0x2A9 JUMPI PUSH1 0x0 DUP1 REVERT JUMPDEST POP PUSH2 0x2C4 PUSH1 0x4 DUP1 CALLDATASIZE SUB DUP2 ADD SWAP1 PUSH2 0x2BF SWAP2 SWAP1 PUSH2 0x1362 JUMP JUMPDEST PUSH2 0xE4C JUMP JUMPDEST STOP JUMPDEST CALLVALUE DUP1 ISZERO PUSH2 0x2D2 JUMPI PUSH1 0x0 DUP1 REVERT JUMPDEST POP PUSH2 0x2DB PUSH2 0xED2 JUMP JUMPDEST PUSH1 0x40 MLOAD PUSH2 0x2E8 SWAP2 SWAP1 PUSH2 0x12DB JUMP JUMPDEST PUSH1 0x40 MLOAD DUP1 SWAP2 SUB SWAP1 RETURN JUMPDEST PUSH1 0x3 PUSH1 0x20 MSTORE DUP1 PUSH1 0x0 MSTORE PUSH1 0x40 PUSH1 0x0 KECCAK256 PUSH1 0x0 SWAP2 POP SWAP1 POP DUP1 PUSH1 0x0 ADD SLOAD SWAP1 DUP1 PUSH1 0x1 ADD PUSH1 0x0 SWAP1 SLOAD SWAP1 PUSH2 0x100 EXP SWAP1 DIV PUSH20 0xFFFFFFFFFFFFFFFFFFFFFFFFFFFFFFFFFFFFFFFF AND SWAP1 DUP1 PUSH1 0x1 ADD PUSH1 0x14 SWAP1 SLOAD SWAP1 PUSH2 0x100 EXP SWAP1 DIV PUSH6 0xFFFFFFFFFFFF AND SWAP1 DUP1 PUSH1 0x1 ADD PUSH1 0x1A SWAP1 SLOAD SWAP1 PUSH2 0x100 EXP SWAP1 DIV PUSH6 0xFFFFFFFFFFFF AND SWAP1 DUP1 PUSH1 0x2 ADD PUSH1 0x0 SWAP1 SLOAD SWAP1 PUSH2 0x100 EXP SWAP1 DIV PUSH1 0xFF AND SWAP1 POP DUP6 JUMP JUMPDEST PUSH1 0x1 PUSH1 0x0 SWAP1 SLOAD SWAP1 PUSH2 0x100 EXP SWAP1 DIV PUSH20 0xFFFFFFFFFFFFFFFFFFFFFFFFFFFFFFFFFFFFFFFF AND PUSH20 0xFFFFFFFFFFFFFFFFFFFFFFFFFFFFFFFFFFFFFFFF AND CALLER PUSH20 0xFFFFFFFFFFFFFFFFFFFFFFFFFFFFFFFFFFFFFFFF AND EQ PUSH2 0x3FF JUMPI PUSH1 0x40 MLOAD PUSH32 0x80FEE10500000000000000000000000000000000000000000000000000000000 DUP2 MSTORE PUSH1 0x4 ADD PUSH1 0x40 MLOAD DUP1 SWAP2 SUB SWAP1 REVERT JUMPDEST PUSH1 0x0 PUSH1 0x3 PUSH1 0x0 DUP4 DUP2 MSTORE PUSH1 0x20 ADD SWAP1 DUP2 MSTORE PUSH1 0x20 ADD PUSH1 0x0 KECCAK256 SWAP1 POP PUSH1 0x1 PUSH1 0x4 DUP2 GT ISZERO PUSH2 0x42A JUMPI PUSH2 0x429 PUSH2 0x11F6 JUMP JUMPDEST JUMPDEST DUP2 PUSH1 0x2 ADD PUSH1 0x0 SWAP1 SLOAD SWAP1 PUSH2 0x100 EXP SWAP1 DIV PUSH1 0xFF AND PUSH1 0x4 DUP2 GT ISZERO PUSH2 0x44E JUMPI PUSH2 0x44D PUSH2 0x11F6 JUMP JUMPDEST JUMPDEST EQ PUSH2 0x485 JUMPI PUSH1 0x40 MLOAD PUSH32 0xF525E32000000000000000000000000000000000000000000000000000000000 DUP2 MSTORE PUSH1 0x4 ADD PUSH1 0x40 MLOAD DUP1 SWAP2 SUB SWAP1 REVERT JUMPDEST TIMESTAMP DUP2 PUSH1 0x1 ADD PUSH1 0x1A PUSH2 0x100 EXP DUP2 SLOAD DUP2 PUSH6 0xFFFFFFFFFFFF MUL NOT AND SWAP1 DUP4 PUSH6 0xFFFFFFFFFFFF AND MUL OR SWAP1 SSTORE POP PUSH1 0x2 DUP2 PUSH1 0x2 ADD PUSH1 0x0 PUSH2 0x100 EXP DUP2 SLOAD DUP2 PUSH1 0xFF MUL NOT AND SWAP1 DUP4 PUSH1 0x4 DUP2 GT ISZERO PUSH2 0x4D4 JUMPI PUSH2 0x4D3 PUSH2 0x11F6 JUMP JUMPDEST JUMPDEST MUL OR SWAP1 SSTORE POP DUP2 PUSH32 0xBAD34A29DE6CE4AE1AEA706E5971A3AAB5097391B794FFF78627FEDDEC9A0191 TIMESTAMP PUSH1 0x40 MLOAD PUSH2 0x509 SWAP2 SWAP1 PUSH2 0x12C0 JUMP JUMPDEST PUSH1 0x40 MLOAD DUP1 SWAP2 SUB SWAP1 LOG2 POP POP JUMP JUMPDEST PUSH1 0x2 SLOAD DUP2 JUMP JUMPDEST PUSH2 0x523 PUSH2 0xEF8 JUMP JUMPDEST PUSH2 0x52D PUSH1 0x0 PUSH2 0xF7F JUMP JUMPDEST JUMP JUMPDEST PUSH1 0x0 DUP1 PUSH1 0x0 SWAP1 SLOAD SWAP1 PUSH2 0x100 EXP SWAP1 DIV PUSH20 0xFFFFFFFFFFFFFFFFFFFFFFFFFFFFFFFFFFFFFFFF AND SWAP1 POP SWAP1 JUMP JUMPDEST PUSH2 0x560 PUSH2 0x1043 JUMP JUMPDEST PUSH1 0x0 PUSH1 0x4 PUSH1 0x0 CALLER PUSH20 0xFFFFFFFFFFFFFFFFFFFFFFFFFFFFFFFFFFFFFFFF AND PUSH20 0xFFFFFFFFFFFFFFFFFFFFFFFFFFFFFFFFFFFFFFFF AND DUP2 MSTORE PUSH1 0x20 ADD SWAP1 DUP2 MSTORE PUSH1 0x20 ADD PUSH1 0x0 KECCAK256 SLOAD SWAP1 POP PUSH1 0x0 DUP2 SUB PUSH2 0x5DE JUMPI PUSH1 0x40 MLOAD PUSH32 0xF4D678B800000000000000000000000000000000000000000000000000000000 DUP2 MSTORE PUSH1 0x4 ADD PUSH1 0x40 MLOAD DUP1 SWAP2 SUB SWAP1 REVERT JUMPDEST PUSH1 0x0 PUSH1 0x4 PUSH1 0x0 CALLER PUSH20 0xFFFFFFFFFFFFFFFFFFFFFFFFFFFFFFFFFFFFFFFF AND PUSH20 0xFFFFFFFFFFFFFFFFFFFFFFFFFFFFFFFFFFFFFFFF AND DUP2 MSTORE PUSH1 0x20 ADD SWAP1 DUP2 MSTORE PUSH1 0x20 ADD PUSH1 0x0 KECCAK256 DUP2 SWAP1 SSTORE POP PUSH1 0x0 CALLER PUSH20 0xFFFFFFFFFFFFFFFFFFFFFFFFFFFFFFFFFFFFFFFF AND DUP3 PUSH1 0x40 MLOAD PUSH2 0x649 SWAP1 PUSH2 0x13C0 JUMP JUMPDEST PUSH1 0x0 PUSH1 0x40 MLOAD DUP1 DUP4 SUB DUP2 DUP6 DUP8 GAS CALL SWAP3 POP POP POP RETURNDATASIZE DUP1 PUSH1 0x0 DUP2 EQ PUSH2 0x686 JUMPI PUSH1 0x40 MLOAD SWAP2 POP PUSH1 0x1F NOT PUSH1 0x3F RETURNDATASIZE ADD AND DUP3 ADD PUSH1 0x40 MSTORE RETURNDATASIZE DUP3 MSTORE RETURNDATASIZE PUSH1 0x0 PUSH1 0x20 DUP5 ADD RETURNDATACOPY PUSH2 0x68B JUMP JUMPDEST PUSH1 0x60 SWAP2 POP JUMPDEST POP POP SWAP1 POP DUP1 PUSH2 0x6CF JUMPI PUSH1 0x40 MLOAD PUSH32 0x8C379A000000000000000000000000000000000000000000000000000000000 DUP2 MSTORE PUSH1 0x4 ADD PUSH2 0x6C6 SWAP1 PUSH2 0x1432 JUMP JUMPDEST PUSH1 0x40 MLOAD DUP1 SWAP2 SUB SWAP1 REVERT JUMPDEST CALLER PUSH20 0xFFFFFFFFFFFFFFFFFFFFFFFFFFFFFFFFFFFFFFFF AND PUSH32 0xFF12809415C01C2CF89ED7C318B357CB402D1CE96537D1592E9966B4F425E4D4 DUP4 PUSH1 0x40 MLOAD PUSH2 0x715 SWAP2 SWAP1 PUSH2 0x12C0 JUMP JUMPDEST PUSH1 0x40 MLOAD DUP1 SWAP2 SUB SWAP1 LOG2 POP POP PUSH2 0x727 PUSH2 0x1066 JUMP JUMPDEST JUMP JUMPDEST PUSH2 0x731 PUSH2 0xEF8 JUMP JUMPDEST PUSH2 0x739 PUSH2 0x1043 JUMP JUMPDEST PUSH1 0x0 PUSH1 0x3 PUSH1 0x0 DUP5 DUP2 MSTORE PUSH1 0x20 ADD SWAP1 DUP2 MSTORE PUSH1 0x20 ADD PUSH1 0x0 KECCAK256 SWAP1 POP PUSH1 0x2 PUSH1 0x4 DUP2 GT ISZERO PUSH2 0x764 JUMPI PUSH2 0x763 PUSH2 0x11F6 JUMP JUMPDEST JUMPDEST DUP2 PUSH1 0x2 ADD PUSH1 0x0 SWAP1 SLOAD SWAP1 PUSH2 0x100 EXP SWAP1 DIV PUSH1 0xFF AND PUSH1 0x4 DUP2 GT ISZERO PUSH2 0x788 JUMPI PUSH2 0x787 PUSH2 0x11F6 JUMP JUMPDEST JUMPDEST EQ PUSH2 0x7BF JUMPI PUSH1 0x40 MLOAD PUSH32 0xF525E32000000000000000000000000000000000000000000000000000000000 DUP2 MSTORE PUSH1 0x4 ADD PUSH1 0x40 MLOAD DUP1 SWAP2 SUB SWAP1 REVERT JUMPDEST DUP1 PUSH1 0x0 ADD SLOAD DUP3 GT ISZERO PUSH2 0x7FD JUMPI PUSH1 0x40 MLOAD PUSH32 0xAA7FEADC00000000000000000000000000000000000000000000000000000000 DUP2 MSTORE PUSH1 0x4 ADD PUSH1 0x40 MLOAD DUP1 SWAP2 SUB SWAP1 REVERT JUMPDEST PUSH1 0x0 DUP3 SWAP1 POP PUSH1 0x0 DUP2 DUP4 PUSH1 0x0 ADD SLOAD PUSH2 0x814 SWAP2 SWAP1 PUSH2 0x1481 JUMP JUMPDEST SWAP1 POP PUSH1 0x3 DUP4 PUSH1 0x2 ADD PUSH1 0x0 PUSH2 0x100 EXP DUP2 SLOAD DUP2 PUSH1 0xFF MUL NOT AND SWAP1 DUP4 PUSH1 0x4 DUP2 GT ISZERO PUSH2 0x83E JUMPI PUSH2 0x83D PUSH2 0x11F6 JUMP JUMPDEST JUMPDEST MUL OR SWAP1 SSTORE POP DUP2 PUSH1 0x4 PUSH1 0x0 PUSH2 0x850 PUSH2 0x52F JUMP JUMPDEST PUSH20 0xFFFFFFFFFFFFFFFFFFFFFFFFFFFFFFFFFFFFFFFF AND PUSH20 0xFFFFFFFFFFFFFFFFFFFFFFFFFFFFFFFFFFFFFFFF AND DUP2 MSTORE PUSH1 0x20 ADD SWAP1 DUP2 MSTORE PUSH1 0x20 ADD PUSH1 0x0 KECCAK256 PUSH1 0x0 DUP3 DUP3 SLOAD PUSH2 0x899 SWAP2 SWAP1 PUSH2 0x14B5 JUMP JUMPDEST SWAP3 POP POP DUP2 SWAP1 SSTORE POP DUP1 PUSH1 0x4 PUSH1 0x0 DUP6 PUSH1 0x1 ADD PUSH1 0x0 SWAP1 SLOAD SWAP1 PUSH2 0x100 EXP SWAP1 DIV PUSH20 0xFFFFFFFFFFFFFFFFFFFFFFFFFFFFFFFFFFFFFFFF AND PUSH20 0xFFFFFFFFFFFFFFFFFFFFFFFFFFFFFFFFFFFFFFFF AND PUSH20 0xFFFFFFFFFFFFFFFFFFFFFFFFFFFFFFFFFFFFFFFF AND DUP2 MSTORE PUSH1 0x20 ADD SWAP1 DUP2 MSTORE PUSH1 0x20 ADD PUSH1 0x0 KECCAK256 PUSH1 0x0 DUP3 DUP3 SLOAD PUSH2 0x913 SWAP2 SWAP1 PUSH2 0x14B5 JUMP JUMPDEST SWAP3 POP POP DUP2 SWAP1 SSTORE POP DUP5 PUSH32 0xF1055A66EC02BEEC68FC5B35F6E986041900EBAEF7B37CEA35DB02354251CEA5 DUP4 DUP4 PUSH1 0x40 MLOAD PUSH2 0x94C SWAP3 SWAP2 SWAP1 PUSH2 0x14E9 JUMP JUMPDEST PUSH1 0x40 MLOAD DUP1 SWAP2 SUB SWAP1 LOG2 POP POP POP PUSH2 0x95F PUSH2 0x1066 JUMP JUMPDEST POP POP JUMP JUMPDEST PUSH2 0x96B PUSH2 0xEF8 JUMP JUMPDEST PUSH1 0x0 PUSH20 0xFFFFFFFFFFFFFFFFFFFFFFFFFFFFFFFFFFFFFFFF AND DUP2 PUSH20 0xFFFFFFFFFFFFFFFFFFFFFFFFFFFFFFFFFFFFFFFF AND SUB PUSH2 0x9D1 JUMPI PUSH1 0x40 MLOAD PUSH32 0xF6B2911F00000000000000000000000000000000000000000000000000000000 DUP2 MSTORE PUSH1 0x4 ADD PUSH1 0x40 MLOAD DUP1 SWAP2 SUB SWAP1 REVERT JUMPDEST PUSH1 0x0 PUSH1 0x1 PUSH1 0x0 SWAP1 SLOAD SWAP1 PUSH2 0x100 EXP SWAP1 DIV PUSH20 0xFFFFFFFFFFFFFFFFFFFFFFFFFFFFFFFFFFFFFFFF AND SWAP1 POP DUP2 PUSH1 0x1 PUSH1 0x0 PUSH2 0x100 EXP DUP2 SLOAD DUP2 PUSH20 0xFFFFFFFFFFFFFFFFFFFFFFFFFFFFFFFFFFFFFFFF MUL NOT AND SWAP1 DUP4 PUSH20 0xFFFFFFFFFFFFFFFFFFFFFFFFFFFFFFFFFFFFFFFF AND MUL OR SWAP1 SSTORE POP DUP2 PUSH20 0xFFFFFFFFFFFFFFFFFFFFFFFFFFFFFFFFFFFFFFFF AND DUP2 PUSH20 0xFFFFFFFFFFFFFFFFFFFFFFFFFFFFFFFFFFFFFFFF AND PUSH32 0x2F15FBF5E5CB83C683BCCC56F4BEFABA328796F99BA44631DC7067DDF8218A14 PUSH1 0x40 MLOAD PUSH1 0x40 MLOAD DUP1 SWAP2 SUB SWAP1 LOG3 POP POP JUMP JUMPDEST PUSH1 0x4 PUSH1 0x20 MSTORE DUP1 PUSH1 0x0 MSTORE PUSH1 0x40 PUSH1 0x0 KECCAK256 PUSH1 0x0 SWAP2 POP SWAP1 POP SLOAD DUP2 JUMP JUMPDEST PUSH1 0x1 PUSH1 0x0 SWAP1 SLOAD SWAP1 PUSH2 0x100 EXP SWAP1 DIV PUSH20 0xFFFFFFFFFFFFFFFFFFFFFFFFFFFFFFFFFFFFFFFF AND PUSH20 0xFFFFFFFFFFFFFFFFFFFFFFFFFFFFFFFFFFFFFFFF AND CALLER PUSH20 0xFFFFFFFFFFFFFFFFFFFFFFFFFFFFFFFFFFFFFFFF AND EQ PUSH2 0xB36 JUMPI PUSH1 0x40 MLOAD PUSH32 0x80FEE10500000000000000000000000000000000000000000000000000000000 DUP2 MSTORE PUSH1 0x4 ADD PUSH1 0x40 MLOAD DUP1 SWAP2 SUB SWAP1 REVERT JUMPDEST PUSH1 0x0 PUSH1 0x3 PUSH1 0x0 DUP4 DUP2 MSTORE PUSH1 0x20 ADD SWAP1 DUP2 MSTORE PUSH1 0x20 ADD PUSH1 0x0 KECCAK256 SWAP1 POP PUSH1 0x0 PUSH1 0x4 DUP2 GT ISZERO PUSH2 0xB61 JUMPI PUSH2 0xB60 PUSH2 0x11F6 JUMP JUMPDEST JUMPDEST DUP2 PUSH1 0x2 ADD PUSH1 0x0 SWAP1 SLOAD SWAP1 PUSH2 0x100 EXP SWAP1 DIV PUSH1 0xFF AND PUSH1 0x4 DUP2 GT ISZERO PUSH2 0xB85 JUMPI PUSH2 0xB84 PUSH2 0x11F6 JUMP JUMPDEST JUMPDEST EQ PUSH2 0xBBC JUMPI PUSH1 0x40 MLOAD PUSH32 0xF525E32000000000000000000000000000000000000000000000000000000000 DUP2 MSTORE PUSH1 0x4 ADD PUSH1 0x40 MLOAD DUP1 SWAP2 SUB SWAP1 REVERT JUMPDEST TIMESTAMP DUP2 PUSH1 0x1 ADD PUSH1 0x14 PUSH2 0x100 EXP DUP2 SLOAD DUP2 PUSH6 0xFFFFFFFFFFFF MUL NOT AND SWAP1 DUP4 PUSH6 0xFFFFFFFFFFFF AND MUL OR SWAP1 SSTORE POP PUSH1 0x1 DUP2 PUSH1 0x2 ADD PUSH1 0x0 PUSH2 0x100 EXP DUP2 SLOAD DUP2 PUSH1 0xFF MUL NOT AND SWAP1 DUP4 PUSH1 0x4 DUP2 GT ISZERO PUSH2 0xC0B JUMPI PUSH2 0xC0A PUSH2 0x11F6 JUMP JUMPDEST JUMPDEST MUL OR SWAP1 SSTORE POP DUP2 PUSH32 0xA1B917E7B2F47808ACB93469D4BE218539B17A4CD31D302DDF391EFE7D372D3D TIMESTAMP PUSH1 0x40 MLOAD PUSH2 0xC40 SWAP2 SWAP1 PUSH2 0x12C0 JUMP JUMPDEST PUSH1 0x40 MLOAD DUP1 SWAP2 SUB SWAP1 LOG2 POP POP JUMP JUMPDEST PUSH1 0x0 DUP1 CALLVALUE SUB PUSH2 0xC87 JUMPI PUSH1 0x40 MLOAD PUSH32 0xAA7FEADC00000000000000000000000000000000000000000000000000000000 DUP2 MSTORE PUSH1 0x4 ADD PUSH1 0x40 MLOAD DUP1 SWAP2 SUB SWAP1 REVERT JUMPDEST PUSH1 0x2 PUSH1 0x0 DUP2 SLOAD DUP1 SWAP3 SWAP2 SWAP1 PUSH2 0xC9A SWAP1 PUSH2 0x1512 JUMP JUMPDEST SWAP2 SWAP1 POP SSTORE POP PUSH1 0x40 MLOAD DUP1 PUSH1 0xA0 ADD PUSH1 0x40 MSTORE DUP1 CALLVALUE DUP2 MSTORE PUSH1 0x20 ADD CALLER PUSH20 0xFFFFFFFFFFFFFFFFFFFFFFFFFFFFFFFFFFFFFFFF AND DUP2 MSTORE PUSH1 0x20 ADD PUSH1 0x0 PUSH6 0xFFFFFFFFFFFF AND DUP2 MSTORE PUSH1 0x20 ADD PUSH1 0x0 PUSH6 0xFFFFFFFFFFFF AND DUP2 MSTORE PUSH1 0x20 ADD PUSH1 0x0 PUSH1 0x4 DUP2 GT ISZERO PUSH2 0xCFE JUMPI PUSH2 0xCFD PUSH2 0x11F6 JUMP JUMPDEST JUMPDEST DUP2 MSTORE POP PUSH1 0x3 PUSH1 0x0 PUSH1 0x2 SLOAD DUP2 MSTORE PUSH1 0x20 ADD SWAP1 DUP2 MSTORE PUSH1 0x20 ADD PUSH1 0x0 KECCAK256 PUSH1 0x0 DUP3 ADD MLOAD DUP2 PUSH1 0x0 ADD SSTORE PUSH1 0x20 DUP3 ADD MLOAD DUP2 PUSH1 0x1 ADD PUSH1 0x0 PUSH2 0x100 EXP DUP2 SLOAD DUP2 PUSH20 0xFFFFFFFFFFFFFFFFFFFFFFFFFFFFFFFFFFFFFFFF MUL NOT AND SWAP1 DUP4 PUSH20 0xFFFFFFFFFFFFFFFFFFFFFFFFFFFFFFFFFFFFFFFF AND MUL OR SWAP1 SSTORE POP PUSH1 0x40 DUP3 ADD MLOAD DUP2 PUSH1 0x1 ADD PUSH1 0x14 PUSH2 0x100 EXP DUP2 SLOAD DUP2 PUSH6 0xFFFFFFFFFFFF MUL NOT AND SWAP1 DUP4 PUSH6 0xFFFFFFFFFFFF AND MUL OR SWAP1 SSTORE POP PUSH1 0x60 DUP3 ADD MLOAD DUP2 PUSH1 0x1 ADD PUSH1 0x1A PUSH2 0x100 EXP DUP2 SLOAD DUP2 PUSH6 0xFFFFFFFFFFFF MUL NOT AND SWAP1 DUP4 PUSH6 0xFFFFFFFFFFFF AND MUL OR SWAP1 SSTORE POP PUSH1 0x80 DUP3 ADD MLOAD DUP2 PUSH1 0x2 ADD PUSH1 0x0 PUSH2 0x100 EXP DUP2 SLOAD DUP2 PUSH1 0xFF MUL NOT AND SWAP1 DUP4 PUSH1 0x4 DUP2 GT ISZERO PUSH2 0xDE8 JUMPI PUSH2 0xDE7 PUSH2 0x11F6 JUMP JUMPDEST JUMPDEST MUL OR SWAP1 SSTORE POP SWAP1 POP POP CALLER PUSH20 0xFFFFFFFFFFFFFFFFFFFFFFFFFFFFFFFFFFFFFFFF AND PUSH1 0x2 SLOAD PUSH32 0xCA7E401818E46F3F45D463EAD362DEE45A1BF117D7D8608E279E58C45040A7C2 CALLVALUE PUSH1 0x40 MLOAD PUSH2 0xE39 SWAP2 SWAP1 PUSH2 0x12C0 JUMP JUMPDEST PUSH1 0x40 MLOAD DUP1 SWAP2 SUB SWAP1 LOG3 PUSH1 0x2 SLOAD SWAP1 POP SWAP3 SWAP2 POP POP JUMP JUMPDEST PUSH2 0xE54 PUSH2 0xEF8 JUMP JUMPDEST PUSH1 0x0 PUSH20 0xFFFFFFFFFFFFFFFFFFFFFFFFFFFFFFFFFFFFFFFF AND DUP2 PUSH20 0xFFFFFFFFFFFFFFFFFFFFFFFFFFFFFFFFFFFFFFFF AND SUB PUSH2 0xEC6 JUMPI PUSH1 0x0 PUSH1 0x40 MLOAD PUSH32 0x1E4FBDF700000000000000000000000000000000000000000000000000000000 DUP2 MSTORE PUSH1 0x4 ADD PUSH2 0xEBD SWAP2 SWAP1 PUSH2 0x12DB JUMP JUMPDEST PUSH1 0x40 MLOAD DUP1 SWAP2 SUB SWAP1 REVERT JUMPDEST PUSH2 0xECF DUP2 PUSH2 0xF7F JUMP JUMPDEST POP JUMP JUMPDEST PUSH1 0x1 PUSH1 0x0 SWAP1 SLOAD SWAP1 PUSH2 0x100 EXP SWAP1 DIV PUSH20 0xFFFFFFFFFFFFFFFFFFFFFFFFFFFFFFFFFFFFFFFF AND DUP2 JUMP JUMPDEST PUSH2 0xF00 PUSH2 0x1081 JUMP JUMPDEST PUSH20 0xFFFFFFFFFFFFFFFFFFFFFFFFFFFFFFFFFFFFFFFF AND PUSH2 0xF1E PUSH2 0x52F JUMP JUMPDEST PUSH20 0xFFFFFFFFFFFFFFFFFFFFFFFFFFFFFFFFFFFFFFFF AND EQ PUSH2 0xF7D JUMPI PUSH2 0xF41 PUSH2 0x1081 JUMP JUMPDEST PUSH1 0x40 MLOAD PUSH32 0x118CDAA700000000000000000000000000000000000000000000000000000000 DUP2 MSTORE PUSH1 0x4 ADD PUSH2 0xF74 SWAP2 SWAP1 PUSH2 0x12DB JUMP JUMPDEST PUSH1 0x40 MLOAD DUP1 SWAP2 SUB SWAP1 REVERT JUMPDEST JUMP JUMPDEST PUSH1 0x0 DUP1 PUSH1 0x0 SWAP1 SLOAD SWAP1 PUSH2 0x100 EXP SWAP1 DIV PUSH20 0xFFFFFFFFFFFFFFFFFFFFFFFFFFFFFFFFFFFFFFFF AND SWAP1 POP DUP2 PUSH1 0x0 DUP1 PUSH2 0x100 EXP DUP2 SLOAD DUP2 PUSH20 0xFFFFFFFFFFFFFFFFFFFFFFFFFFFFFFFFFFFFFFFF MUL NOT AND SWAP1 DUP4 PUSH20 0xFFFFFFFFFFFFFFFFFFFFFFFFFFFFFFFFFFFFFFFF AND MUL OR SWAP1 SSTORE POP DUP2 PUSH20 0xFFFFFFFFFFFFFFFFFFFFFFFFFFFFFFFFFFFFFFFF AND DUP2 PUSH20 0xFFFFFFFFFFFFFFFFFFFFFFFFFFFFFFFFFFFFFFFF AND PUSH32 0x8BE0079C531659141344CD1FD0A4F28419497F9722A3DAAFE3B4186F6B6457E0 PUSH1 0x40 MLOAD PUSH1 0x40 MLOAD DUP1 SWAP2 SUB SWAP1 LOG3 POP POP JUMP JUMPDEST PUSH2 0x104B PUSH2 0x1089 JUMP JUMPDEST PUSH1 0x2 PUSH2 0x105D PUSH2 0x1058 PUSH2 0x10CA JUMP JUMPDEST PUSH2 0x10F5 JUMP JUMPDEST PUSH1 0x0 ADD DUP2 SWAP1 SSTORE POP JUMP JUMPDEST PUSH1 0x1 PUSH2 0x1078 PUSH2 0x1073 PUSH2 0x10CA JUMP JUMPDEST PUSH2 0x10F5 JUMP JUMPDEST PUSH1 0x0 ADD DUP2 SWAP1 SSTORE POP JUMP JUMPDEST PUSH1 0x0 CALLER SWAP1 POP SWAP1 JUMP JUMPDEST PUSH2 0x1091 PUSH2 0x10FF JUMP JUMPDEST ISZERO PUSH2 0x10C8 JUMPI PUSH1 0x40 MLOAD PUSH32 0x3EE5AEB500000000000000000000000000000000000000000000000000000000 DUP2 MSTORE PUSH1 0x4 ADD PUSH1 0x40 MLOAD DUP1 SWAP2 SUB SWAP1 REVERT JUMPDEST JUMP JUMPDEST PUSH1 0x0 PUSH32 0x9B779B17422D0DF92223018B32B4D1FA46E071723D6817E2486D003BECC55F00 PUSH1 0x0 SHL SWAP1 POP SWAP1 JUMP JUMPDEST PUSH1 0x0 DUP2 SWAP1 POP SWAP2 SWAP1 POP JUMP JUMPDEST PUSH1 0x0 PUSH1 0x2 PUSH2 0x1113 PUSH2 0x110E PUSH2 0x10CA JUMP JUMPDEST PUSH2 0x10F5 JUMP JUMPDEST PUSH1 0x0 ADD SLOAD EQ SWAP1 POP SWAP1 JUMP JUMPDEST PUSH1 0x0 DUP1 REVERT JUMPDEST PUSH1 0x0 DUP2 SWAP1 POP SWAP2 SWAP1 POP JUMP JUMPDEST PUSH2 0x1135 DUP2 PUSH2 0x1122 JUMP JUMPDEST DUP2 EQ PUSH2 0x1140 JUMPI PUSH1 0x0 DUP1 REVERT JUMPDEST POP JUMP JUMPDEST PUSH1 0x0 DUP2 CALLDATALOAD SWAP1 POP PUSH2 0x1152 DUP2 PUSH2 0x112C JUMP JUMPDEST SWAP3 SWAP2 POP POP JUMP JUMPDEST PUSH1 0x0 PUSH1 0x20 DUP3 DUP5 SUB SLT ISZERO PUSH2 0x116E JUMPI PUSH2 0x116D PUSH2 0x111D JUMP JUMPDEST JUMPDEST PUSH1 0x0 PUSH2 0x117C DUP5 DUP3 DUP6 ADD PUSH2 0x1143 JUMP JUMPDEST SWAP2 POP POP SWAP3 SWAP2 POP POP JUMP JUMPDEST PUSH2 0x118E DUP2 PUSH2 0x1122 JUMP JUMPDEST DUP3 MSTORE POP POP JUMP JUMPDEST PUSH1 0x0 PUSH20 0xFFFFFFFFFFFFFFFFFFFFFFFFFFFFFFFFFFFFFFFF DUP3 AND SWAP1 POP SWAP2 SWAP1 POP JUMP JUMPDEST PUSH1 0x0 PUSH2 0x11BF DUP3 PUSH2 0x1194 JUMP JUMPDEST SWAP1 POP SWAP2 SWAP1 POP JUMP JUMPDEST PUSH2 0x11CF DUP2 PUSH2 0x11B4 JUMP JUMPDEST DUP3 MSTORE POP POP JUMP JUMPDEST PUSH1 0x0 PUSH6 0xFFFFFFFFFFFF DUP3 AND SWAP1 POP SWAP2 SWAP1 POP JUMP JUMPDEST PUSH2 0x11F0 DUP2 PUSH2 0x11D5 JUMP JUMPDEST DUP3 MSTORE POP POP JUMP JUMPDEST PUSH32 0x4E487B7100000000000000000000000000000000000000000000000000000000 PUSH1 0x0 MSTORE PUSH1 0x21 PUSH1 0x4 MSTORE PUSH1 0x24 PUSH1 0x0 REVERT JUMPDEST PUSH1 0x5 DUP2 LT PUSH2 0x1236 JUMPI PUSH2 0x1235 PUSH2 0x11F6 JUMP JUMPDEST JUMPDEST POP JUMP JUMPDEST PUSH1 0x0 DUP2 SWAP1 POP PUSH2 0x1247 DUP3 PUSH2 0x1225 JUMP JUMPDEST SWAP2 SWAP1 POP JUMP JUMPDEST PUSH1 0x0 PUSH2 0x1257 DUP3 PUSH2 0x1239 JUMP JUMPDEST SWAP1 POP SWAP2 SWAP1 POP JUMP JUMPDEST PUSH2 0x1267 DUP2 PUSH2 0x124C JUMP JUMPDEST DUP3 MSTORE POP POP JUMP JUMPDEST PUSH1 0x0 PUSH1 0xA0 DUP3 ADD SWAP1 POP PUSH2 0x1282 PUSH1 0x0 DUP4 ADD DUP9 PUSH2 0x1185 JUMP JUMPDEST PUSH2 0x128F PUSH1 0x20 DUP4 ADD DUP8 PUSH2 0x11C6 JUMP JUMPDEST PUSH2 0x129C PUSH1 0x40 DUP4 ADD DUP7 PUSH2 0x11E7 JUMP JUMPDEST PUSH2 0x12A9 PUSH1 0x60 DUP4 ADD DUP6 PUSH2 0x11E7 JUMP JUMPDEST PUSH2 0x12B6 PUSH1 0x80 DUP4 ADD DUP5 PUSH2 0x125E JUMP JUMPDEST SWAP7 SWAP6 POP POP POP POP POP POP JUMP JUMPDEST PUSH1 0x0 PUSH1 0x20 DUP3 ADD SWAP1 POP PUSH2 0x12D5 PUSH1 0x0 DUP4 ADD DUP5 PUSH2 0x1185 JUMP JUMPDEST SWAP3 SWAP2 POP POP JUMP JUMPDEST PUSH1 0x0 PUSH1 0x20 DUP3 ADD SWAP1 POP PUSH2 0x12F0 PUSH1 0x0 DUP4 ADD DUP5 PUSH2 0x11C6 JUMP JUMPDEST SWAP3 SWAP2 POP POP JUMP JUMPDEST PUSH1 0x0 DUP1 PUSH1 0x40 DUP4 DUP6 SUB SLT ISZERO PUSH2 0x130D JUMPI PUSH2 0x130C PUSH2 0x111D JUMP JUMPDEST JUMPDEST PUSH1 0x0 PUSH2 0x131B DUP6 DUP3 DUP7 ADD PUSH2 0x1143 JUMP JUMPDEST SWAP3 POP POP PUSH1 0x20 PUSH2 0x132C DUP6 DUP3 DUP7 ADD PUSH2 0x1143 JUMP JUMPDEST SWAP2 POP POP SWAP3 POP SWAP3 SWAP1 POP JUMP JUMPDEST PUSH2 0x133F DUP2 PUSH2 0x11B4 JUMP JUMPDEST DUP2 EQ PUSH2 0x134A JUMPI PUSH1 0x0 DUP1 REVERT JUMPDEST POP JUMP JUMPDEST PUSH1 0x0 DUP2 CALLDATALOAD SWAP1 POP PUSH2 0x135C DUP2 PUSH2 0x1336 JUMP JUMPDEST SWAP3 SWAP2 POP POP JUMP JUMPDEST PUSH1 0x0 PUSH1 0x20 DUP3 DUP5 SUB SLT ISZERO PUSH2 0x1378 JUMPI PUSH2 0x1377 PUSH2 0x111D JUMP JUMPDEST JUMPDEST PUSH1 0x0 PUSH2 0x1386 DUP5 DUP3 DUP6 ADD PUSH2 0x134D JUMP JUMPDEST SWAP2 POP POP SWAP3 SWAP2 POP POP JUMP JUMPDEST PUSH1 0x0 DUP2 SWAP1 POP SWAP3 SWAP2 POP POP JUMP JUMPDEST POP JUMP JUMPDEST PUSH1 0x0 PUSH2 0x13AA PUSH1 0x0 DUP4 PUSH2 0x138F JUMP JUMPDEST SWAP2 POP PUSH2 0x13B5 DUP3 PUSH2 0x139A JUMP JUMPDEST PUSH1 0x0 DUP3 ADD SWAP1 POP SWAP2 SWAP1 POP JUMP JUMPDEST PUSH1 0x0 PUSH2 0x13CB DUP3 PUSH2 0x139D JUMP JUMPDEST SWAP2 POP DUP2 SWAP1 POP SWAP2 SWAP1 POP JUMP JUMPDEST PUSH1 0x0 DUP3 DUP3 MSTORE PUSH1 0x20 DUP3 ADD SWAP1 POP SWAP3 SWAP2 POP POP JUMP JUMPDEST PUSH32 0x5472616E73666572206661696C65640000000000000000000000000000000000 PUSH1 0x0 DUP3 ADD MSTORE POP JUMP JUMPDEST PUSH1 0x0 PUSH2 0x141C PUSH1 0xF DUP4 PUSH2 0x13D5 JUMP JUMPDEST SWAP2 POP PUSH2 0x1427 DUP3 PUSH2 0x13E6 JUMP JUMPDEST PUSH1 0x20 DUP3 ADD SWAP1 POP SWAP2 SWAP1 POP JUMP JUMPDEST PUSH1 0x0 PUSH1 0x20 DUP3 ADD SWAP1 POP DUP2 DUP2 SUB PUSH1 0x0 DUP4 ADD MSTORE PUSH2 0x144B DUP2 PUSH2 0x140F JUMP JUMPDEST SWAP1 POP SWAP2 SWAP1 POP JUMP JUMPDEST PUSH32 0x4E487B7100000000000000000000000000000000000000000000000000000000 PUSH1 0x0 MSTORE PUSH1 0x11 PUSH1 0x4 MSTORE PUSH1 0x24 PUSH1 0x0 REVERT JUMPDEST PUSH1 0x0 PUSH2 0x148C DUP3 PUSH2 0x1122 JUMP JUMPDEST SWAP2 POP PUSH2 0x1497 DUP4 PUSH2 0x1122 JUMP JUMPDEST SWAP3 POP DUP3 DUP3 SUB SWAP1 POP DUP2 DUP2 GT ISZERO PUSH2 0x14AF JUMPI PUSH2 0x14AE PUSH2 0x1452 JUMP JUMPDEST JUMPDEST SWAP3 SWAP2 POP POP JUMP JUMPDEST PUSH1 0x0 PUSH2 0x14C0 DUP3 PUSH2 0x1122 JUMP JUMPDEST SWAP2 POP PUSH2 0x14CB DUP4 PUSH2 0x1122 JUMP JUMPDEST SWAP3 POP DUP3 DUP3 ADD SWAP1 POP DUP1 DUP3 GT ISZERO PUSH2 0x14E3 JUMPI PUSH2 0x14E2 PUSH2 0x1452 JUMP JUMPDEST JUMPDEST SWAP3 SWAP2 POP POP JUMP JUMPDEST PUSH1 0x0 PUSH1 0x40 DUP3 ADD SWAP1 POP PUSH2 0x14FE PUSH1 0x0 DUP4 ADD DUP6 PUSH2 0x1185 JUMP JUMPDEST PUSH2 0x150B PUSH1 0x20 DUP4 ADD DUP5 PUSH2 0x1185 JUMP JUMPDEST SWAP4 SWAP3 POP POP POP JUMP JUMPDEST PUSH1 0x0 PUSH2 0x151D DUP3 PUSH2 0x1122 JUMP JUMPDEST SWAP2 POP PUSH32 0xFFFFFFFFFFFFFFFFFFFFFFFFFFFFFFFFFFFFFFFFFFFFFFFFFFFFFFFFFFFFFFFF DUP3 SUB PUSH2 0x154F JUMPI PUSH2 0x154E PUSH2 0x1452 JUMP JUMPDEST JUMPDEST PUSH1 0x1 DUP3 ADD SWAP1 POP SWAP2 SWAP1 POP JUMP INVALID LOG2 PUSH5 0x6970667358 0x22 SLT KECCAK256 DUP12 0xD5 0xB3 BLOCKHASH LOG4 PUSH13 0x2D22FA6AF9E359483356C37273 0xE SWAP7 SHR DUP9 CALLDATASIZE PC GT SWAP10 CALL DUP4 0xA9 0xC7 0x2B PUSH5 0x736F6C6343 STOP ADDMOD EQ STOP CALLER "},"methodIdentifiers":{"alugueis(uint256)":"166c1cfb","atualizarOracle(address)":"bf274aaf","confirmarVistoria(uint256,uint256)":"a5a88339","contadorAlugueis()":"52fb63a8","criarAluguel(uint256,uint256)":"f1c7db1f","oracleIoT()":"ffd21e2c","owner()":"8da5cb5b","registrarDevolucao(uint256)":"427d0549","registrarRetirada(uint256)":"ccad9486","renounceOwnership()":"715018a6","sacar()":"a51068c8","saldos(address)":"c68c0612","transferOwnership(address)":"f2fde38b"}}}}}