{
  "_format": "hh-sol-artifact-1",
  "contractName": "BipTrust",
  "sourceName": "contracts/BipTrust.sol",
  "abi": [
    {
      "inputs": [
        {
          "internalType": "address",
          "name": "_oracleIoT",
          "type": "address"
        }
      ],
      "stateMutability": "nonpayable",
      "type": "constructor"
    },
    {
      "inputs": [],
      "name": "AbandonmentDeadlineNotPassed",
      "type": "error"
    },
    {
      "inputs": [],
      "name": "EnforcedPause",
      "type": "error"
    },
    {
      "inputs": [],
      "name": "ExpectedPause",
      "type": "error"
    },
    {
      "inputs": [],
      "name": "InspectionDeadlineNotPassed",
      "type": "error"
    },
    {
      "inputs": [],
      "name": "InsufficientBalance",
      "type": "error"
    },
    {
      "inputs": [],
      "name": "InvalidStatus",
      "type": "error"
    },
    {
      "inputs": [],
      "name": "InvalidValue",
      "type": "error"
    },
    {
      "inputs": [],
      "name": "InvalidZeroAddress",
      "type": "error"
    },
    {
      "inputs": [],
      "name": "OnlyClient",
      "type": "error"
    },
    {
      "inputs": [],
      "name": "OnlyOracle",
      "type": "error"
    },
    {
      "inputs": [
        {
          "internalType": "address",
          "name": "owner",
          "type": "address"
        }
      ],
      "name": "OwnableInvalidOwner",
      "type": "error"
    },
    {
      "inputs": [
        {
          "internalType": "address",
          "name": "account",
          "type": "address"
        }
      ],
      "name": "OwnableUnauthorizedAccount",
      "type": "error"
    },
    {
      "inputs": [],
      "name": "ReentrancyGuardReentrantCall",
      "type": "error"
    },
    {
      "anonymous": false,
      "inputs": [
        {
          "indexed": true,
          "internalType": "uint256",
          "name": "id",
          "type": "uint256"
        },
        {
          "indexed": false,
          "internalType": "uint256",
          "name": "valorRetido",
          "type": "uint256"
        }
      ],
      "name": "AbandonoExecutado",
      "type": "event"
    },
    {
      "anonymous": false,
      "inputs": [
        {
          "indexed": true,
          "internalType": "uint256",
          "name": "id",
          "type": "uint256"
        },
        {
          "indexed": true,
          "internalType": "address",
          "name": "cliente",
          "type": "address"
        }
      ],
      "name": "AluguelCancelado",
      "type": "event"
    },
    {
      "anonymous": false,
      "inputs": [
        {
          "indexed": true,
          "internalType": "uint256",
          "name": "id",
          "type": "uint256"
        },
        {
          "indexed": true,
          "internalType": "address",
          "name": "cliente",
          "type": "address"
        },
        {
          "indexed": false,
          "internalType": "uint256",
          "name": "valorCaucao",
          "type": "uint256"
        }
      ],
      "name": "AluguelCriado",
      "type": "event"
    },
    {
      "anonymous": false,
      "inputs": [
        {
          "indexed": true,
          "internalType": "uint256",
          "name": "id",
          "type": "uint256"
        },
        {
          "indexed": true,
          "internalType": "address",
          "name": "cliente",
          "type": "address"
        },
        {
          "indexed": false,
          "internalType": "uint256",
          "name": "valor",
          "type": "uint256"
        }
      ],
      "name": "AutoLiberacaoExecutada",
      "type": "event"
    },
    {
      "anonymous": false,
      "inputs": [
        {
          "indexed": true,
          "internalType": "uint256",
          "name": "id",
          "type": "uint256"
        },
        {
          "indexed": false,
          "internalType": "uint256",
          "name": "timestampDevolucao",
          "type": "uint256"
        }
      ],
      "name": "DevolucaoRegistrada",
      "type": "event"
    },
    {
      "anonymous": false,
      "inputs": [
        {
          "indexed": true,
          "internalType": "address",
          "name": "oracleAntigo",
          "type": "address"
        },
        {
          "indexed": true,
          "internalType": "address",
          "name": "oracleNovo",
          "type": "address"
        }
      ],
      "name": "OracleAtualizado",
      "type": "event"
    },
    {
      "anonymous": false,
      "inputs": [
        {
          "indexed": true,
          "internalType": "address",
          "name": "previousOwner",
          "type": "address"
        },
        {
          "indexed": true,
          "internalType": "address",
          "name": "newOwner",
          "type": "address"
        }
      ],
      "name": "OwnershipTransferred",
      "type": "event"
    },
    {
      "anonymous": false,
      "inputs": [
        {
          "indexed": false,
          "internalType": "address",
          "name": "account",
          "type": "address"
        }
      ],
      "name": "Paused",
      "type": "event"
    },
    {
      "anonymous": false,
      "inputs": [
        {
          "indexed": true,
          "internalType": "uint256",
          "name": "id",
          "type": "uint256"
        },
        {
          "indexed": false,
          "internalType": "uint256",
          "name": "timestampRetirada",
          "type": "uint256"
        }
      ],
      "name": "RetiradaRegistrada",
      "type": "event"
    },
    {
      "anonymous": false,
      "inputs": [
        {
          "indexed": true,
          "internalType": "address",
          "name": "usuario",
          "type": "address"
        },
        {
          "indexed": false,
          "internalType": "uint256",
          "name": "valor",
          "type": "uint256"
        }
      ],
      "name": "SaqueRealizado",
      "type": "event"
    },
    {
      "anonymous": false,
      "inputs": [
        {
          "indexed": false,
          "internalType": "address",
          "name": "account",
          "type": "address"
        }
      ],
      "name": "Unpaused",
      "type": "event"
    },
    {
      "anonymous": false,
      "inputs": [
        {
          "indexed": true,
          "internalType": "uint256",
          "name": "id",
          "type": "uint256"
        },
        {
          "indexed": false,
          "internalType": "uint256",
          "name": "retidoLocadora",
          "type": "uint256"
        },
        {
          "indexed": false,
          "internalType": "uint256",
          "name": "liberadoCliente",
          "type": "uint256"
        }
      ],
      "name": "VistoriaConfirmada",
      "type": "event"
    },
    {
      "inputs": [],
      "name": "PRAZO_ABANDONO",
      "outputs": [
        {
          "internalType": "uint256",
          "name": "",
          "type": "uint256"
        }
      ],
      "stateMutability": "view",
      "type": "function"
    },
    {
      "inputs": [],
      "name": "PRAZO_VISTORIA",
      "outputs": [
        {
          "internalType": "uint256",
          "name": "",
          "type": "uint256"
        }
      ],
      "stateMutability": "view",
      "type": "function"
    },
    {
      "inputs": [
        {
          "internalType": "uint256",
          "name": "",
          "type": "uint256"
        }
      ],
      "name": "alugueis",
      "outputs": [
        {
          "internalType": "uint256",
          "name": "valorCaucao",
          "type": "uint256"
        },
        {
          "internalType": "uint256",
          "name": "multaPorSegundo",
          "type": "uint256"
        },
        {
          "internalType": "address",
          "name": "cliente",
          "type": "address"
        },
        {
          "internalType": "uint48",
          "name": "timestampRetirada",
          "type": "uint48"
        },
        {
          "internalType": "uint48",
          "name": "timestampDevolucao",
          "type": "uint48"
        },
        {
          "internalType": "uint256",
          "name": "duracaoContratada",
          "type": "uint256"
        },
        {
          "internalType": "enum BipTrust.Status",
          "name": "statusAtual",
          "type": "uint8"
        }
      ],
      "stateMutability": "view",
      "type": "function"
    },
    {
      "inputs": [
        {
          "internalType": "address",
          "name": "_novoOracle",
          "type": "address"
        }
      ],
      "name": "atualizarOracle",
      "outputs": [],
      "stateMutability": "nonpayable",
      "type": "function"
    },
    {
      "inputs": [
        {
          "internalType": "uint256",
          "name": "_id",
          "type": "uint256"
        }
      ],
      "name": "autoLiberarCaucao",
      "outputs": [],
      "stateMutability": "nonpayable",
      "type": "function"
    },
    {
      "inputs": [
        {
          "internalType": "uint256",
          "name": "_id",
          "type": "uint256"
        }
      ],
      "name": "cancelarAluguel",
      "outputs": [],
      "stateMutability": "nonpayable",
      "type": "function"
    },
    {
      "inputs": [
        {
          "internalType": "uint256",
          "name": "_id",
          "type": "uint256"
        },
        {
          "internalType": "uint256",
          "name": "_custoDanos",
          "type": "uint256"
        }
      ],
      "name": "confirmarVistoria",
      "outputs": [],
      "stateMutability": "nonpayable",
      "type": "function"
    },
    {
      "inputs": [],
      "name": "contadorAlugueis",
      "outputs": [
        {
          "internalType": "uint256",
          "name": "",
          "type": "uint256"
        }
      ],
      "stateMutability": "view",
      "type": "function"
    },
    {
      "inputs": [
        {
          "internalType": "uint256",
          "name": "_duracaoEmSegundos",
          "type": "uint256"
        },
        {
          "internalType": "uint256",
          "name": "_multaPorSegundo",
          "type": "uint256"
        }
      ],
      "name": "criarAluguel",
      "outputs": [
        {
          "internalType": "uint256",
          "name": "",
          "type": "uint256"
        }
      ],
      "stateMutability": "payable",
      "type": "function"
    },
    {
      "inputs": [],
      "name": "despausarContrato",
      "outputs": [],
      "stateMutability": "nonpayable",
      "type": "function"
    },
    {
      "inputs": [
        {
          "internalType": "uint256",
          "name": "_id",
          "type": "uint256"
        }
      ],
      "name": "encerrarPorAbandono",
      "outputs": [],
      "stateMutability": "nonpayable",
      "type": "function"
    },
    {
      "inputs": [],
      "name": "oracleIoT",
      "outputs": [
        {
          "internalType": "address",
          "name": "",
          "type": "address"
        }
      ],
      "stateMutability": "view",
      "type": "function"
    },
    {
      "inputs": [],
      "name": "owner",
      "outputs": [
        {
          "internalType": "address",
          "name": "",
          "type": "address"
        }
      ],
      "stateMutability": "view",
      "type": "function"
    },
    {
      "inputs": [],
      "name": "pausarContrato",
      "outputs": [],
      "stateMutability": "nonpayable",
      "type": "function"
    },
    {
      "inputs": [],
      "name": "paused",
      "outputs": [
        {
          "internalType": "bool",
          "name": "",
          "type": "bool"
        }
      ],
      "stateMutability": "view",
      "type": "function"
    },
    {
      "inputs": [
        {
          "internalType": "uint256",
          "name": "_id",
          "type": "uint256"
        }
      ],
      "name": "registrarDevolucao",
      "outputs": [],
      "stateMutability": "nonpayable",
      "type": "function"
    },
    {
      "inputs": [
        {
          "internalType": "uint256",
          "name": "_id",
          "type": "uint256"
        }
      ],
      "name": "registrarRetirada",
      "outputs": [],
      "stateMutability": "nonpayable",
      "type": "function"
    },
    {
      "inputs": [],
      "name": "renounceOwnership",
      "outputs": [],
      "stateMutability": "nonpayable",
      "type": "function"
    },
    {
      "inputs": [],
      "name": "sacar",
      "outputs": [],
      "stateMutability": "nonpayable",
      "type": "function"
    },
    {
      "inputs": [
        {
          "internalType": "address",
          "name": "",
          "type": "address"
        }
      ],
      "name": "saldos",
      "outputs": [
        {
          "internalType": "uint256",
          "name": "",
          "type": "uint256"
        }
      ],
      "stateMutability": "view",
      "type": "function"
    },
    {
      "inputs": [
        {
          "internalType": "address",
          "name": "newOwner",
          "type": "address"
        }
      ],
      "name": "transferOwnership",
      "outputs": [],
      "stateMutability": "nonpayable",
      "type": "function"
    }
  ],
  "bytecode": "0x60806040523480156200001157600080fd5b5060405162002421380380620024218339818101604052810190620000379190620002fa565b33600073ffffffffffffffffffffffffffffffffffffffff168173ffffffffffffffffffffffffffffffffffffffff1603620000ad5760006040517f1e4fbdf7000000000000000000000000000000000000000000000000000000008152600401620000a491906200033d565b60405180910390fd5b620000be816200019760201b60201c565b506001620000e1620000d56200025b60201b60201c565b6200028660201b60201c565b60000181905550600073ffffffffffffffffffffffffffffffffffffffff168173ffffffffffffffffffffffffffffffffffffffff16036200014f576040517ff6b2911f00000000000000000000000000000000000000000000000000000000815260040160405180910390fd5b80600160006101000a81548173ffffffffffffffffffffffffffffffffffffffff021916908373ffffffffffffffffffffffffffffffffffffffff160217905550506200035a565b60008060009054906101000a900473ffffffffffffffffffffffffffffffffffffffff169050816000806101000a81548173ffffffffffffffffffffffffffffffffffffffff021916908373ffffffffffffffffffffffffffffffffffffffff1602179055508173ffffffffffffffffffffffffffffffffffffffff168173ffffffffffffffffffffffffffffffffffffffff167f8be0079c531659141344cd1fd0a4f28419497f9722a3daafe3b4186f6b6457e060405160405180910390a35050565b60007f9b779b17422d0df92223018b32b4d1fa46e071723d6817e2486d003becc55f0060001b905090565b6000819050919050565b600080fd5b600073ffffffffffffffffffffffffffffffffffffffff82169050919050565b6000620002c28262000295565b9050919050565b620002d481620002b5565b8114620002e057600080fd5b50565b600081519050620002f481620002c9565b92915050565b60006020828403121562000313576200031262000290565b5b60006200032384828501620002e3565b91505092915050565b6200033781620002b5565b82525050565b60006020820190506200035460008301846200032c565b92915050565b6120b7806200036a6000396000f3fe60806040526004361061012a5760003560e01c80638da5cb5b116100ab578063c68c06121161006f578063c68c061214610370578063ccad9486146103ad578063ed22a604146103d6578063f1c7db1f14610401578063f2fde38b14610431578063ffd21e2c1461045a5761012a565b80638da5cb5b146102b157806393e044d7146102dc578063a51068c814610307578063a5a883391461031e578063bf274aaf146103475761012a565b8063509ef8c0116100f2578063509ef8c0146101f257806352d2f0211461021b57806352fb63a8146102445780635c975abb1461026f578063715018a61461029a5761012a565b80631169a2481461012f578063166c1cfb146101585780631a003ecb1461019b57806338d5c916146101b2578063427d0549146101c9575b600080fd5b34801561013b57600080fd5b5061015660048036038101906101519190611beb565b610485565b005b34801561016457600080fd5b5061017f600480360381019061017a9190611beb565b61070b565b6040516101929796959493929190611d00565b60405180910390f35b3480156101a757600080fd5b506101b061079e565b005b3480156101be57600080fd5b506101c76107b0565b005b3480156101d557600080fd5b506101f060048036038101906101eb9190611beb565b6107c2565b005b3480156101fe57600080fd5b5061021960048036038101906102149190611beb565b610967565b005b34801561022757600080fd5b50610242600480360381019061023d9190611beb565b610b4d565b005b34801561025057600080fd5b50610259610d4b565b6040516102669190611d6f565b60405180910390f35b34801561027b57600080fd5b50610284610d51565b6040516102919190611da5565b60405180910390f35b3480156102a657600080fd5b506102af610d67565b005b3480156102bd57600080fd5b506102c6610d7b565b6040516102d39190611dc0565b60405180910390f35b3480156102e857600080fd5b506102f1610da4565b6040516102fe9190611d6f565b60405180910390f35b34801561031357600080fd5b5061031c610dab565b005b34801561032a57600080fd5b5061034560048036038101906103409190611ddb565b610f7c565b005b34801561035357600080fd5b5061036e60048036038101906103699190611e47565b611278565b005b34801561037c57600080fd5b5061039760048036038101906103929190611e47565b6113ac565b6040516103a49190611d6f565b60405180910390f35b3480156103b957600080fd5b506103d460048036038101906103cf9190611beb565b6113c4565b005b3480156103e257600080fd5b506103eb611569565b6040516103f89190611d6f565b60405180910390f35b61041b60048036038101906104169190611ddb565b611570565b6040516104289190611d6f565b60405180910390f35b34801561043d57600080fd5b5061045860048036038101906104539190611e47565b611799565b005b34801561046657600080fd5b5061046f61181f565b60405161047c9190611dc0565b60405180910390f35b61048d611845565b60006003600083815260200190815260200160002090508060020160009054906101000a900473ffffffffffffffffffffffffffffffffffffffff1673ffffffffffffffffffffffffffffffffffffffff163373ffffffffffffffffffffffffffffffffffffffff161461052d576040517fd6d90f8900000000000000000000000000000000000000000000000000000000815260040160405180910390fd5b6002600481111561054157610540611c89565b5b8160040160009054906101000a900460ff16600481111561056557610564611c89565b5b1461059c576040517ff525e32000000000000000000000000000000000000000000000000000000000815260040160405180910390fd5b6202a30081600201601a9054906101000a900465ffffffffffff1665ffffffffffff166105c99190611ea3565b4211610601576040517feaa8310900000000000000000000000000000000000000000000000000000000815260040160405180910390fd5b60038160040160006101000a81548160ff0219169083600481111561062957610628611c89565b5b02179055508060000154600460008360020160009054906101000a900473ffffffffffffffffffffffffffffffffffffffff1673ffffffffffffffffffffffffffffffffffffffff1673ffffffffffffffffffffffffffffffffffffffff16815260200190815260200160002060008282546106a59190611ea3565b925050819055503373ffffffffffffffffffffffffffffffffffffffff16827fa2b427084d5d33d46cb7795d73f6e59af3b674bcd252661f64673c59b6be1c7f83600001546040516106f79190611d6f565b60405180910390a350610708611868565b50565b60036020528060005260406000206000915090508060000154908060010154908060020160009054906101000a900473ffffffffffffffffffffffffffffffffffffffff16908060020160149054906101000a900465ffffffffffff169080600201601a9054906101000a900465ffffffffffff16908060030154908060040160009054906101000a900460ff16905087565b6107a6611883565b6107ae61190a565b565b6107b8611883565b6107c061196d565b565b600160009054906101000a900473ffffffffffffffffffffffffffffffffffffffff1673ffffffffffffffffffffffffffffffffffffffff163373ffffffffffffffffffffffffffffffffffffffff1614610849576040517f80fee10500000000000000000000000000000000000000000000000000000000815260040160405180910390fd5b6108516119cf565b60006003600083815260200190815260200160002090506001600481111561087c5761087b611c89565b5b8160040160009054906101000a900460ff1660048111156108a05761089f611c89565b5b146108d7576040517ff525e32000000000000000000000000000000000000000000000000000000000815260040160405180910390fd5b4281600201601a6101000a81548165ffffffffffff021916908365ffffffffffff16021790555060028160040160006101000a81548160ff0219169083600481111561092657610925611c89565b5b0217905550817fbad34a29de6ce4ae1aea706e5971a3aab5097391b794fff78627feddec9a01914260405161095b9190611d6f565b60405180910390a25050565b61096f611883565b610977611845565b6000600360008381526020019081526020016000209050600160048111156109a2576109a1611c89565b5b8160040160009054906101000a900460ff1660048111156109c6576109c5611c89565b5b146109fd576040517ff525e32000000000000000000000000000000000000000000000000000000000815260040160405180910390fd5b600081600301548260020160149054906101000a900465ffffffffffff1665ffffffffffff16610a2d9190611ea3565b905062278d0081610a3e9190611ea3565b4211610a76576040517f01a844a200000000000000000000000000000000000000000000000000000000815260040160405180910390fd5b60038260040160006101000a81548160ff02191690836004811115610a9e57610a9d611c89565b5b0217905550816000015460046000610ab4610d7b565b73ffffffffffffffffffffffffffffffffffffffff1673ffffffffffffffffffffffffffffffffffffffff1681526020019081526020016000206000828254610afd9190611ea3565b92505081905550827fa7dfd2c4b8d331628a28d9e5f037d3387f2ac1dfbc708596e26f6db746d7dc2e8360000154604051610b389190611d6f565b60405180910390a25050610b4a611868565b50565b610b55611845565b60006003600083815260200190815260200160002090508060020160009054906101000a900473ffffffffffffffffffffffffffffffffffffffff1673ffffffffffffffffffffffffffffffffffffffff163373ffffffffffffffffffffffffffffffffffffffff1614610bf5576040517fd6d90f8900000000000000000000000000000000000000000000000000000000815260040160405180910390fd5b60006004811115610c0957610c08611c89565b5b8160040160009054906101000a900460ff166004811115610c2d57610c2c611c89565b5b14610c64576040517ff525e32000000000000000000000000000000000000000000000000000000000815260040160405180910390fd5b60048160040160006101000a81548160ff02191690836004811115610c8c57610c8b611c89565b5b02179055506000816000015490506000826000018190555080600460003373ffffffffffffffffffffffffffffffffffffffff1673ffffffffffffffffffffffffffffffffffffffff1681526020019081526020016000206000828254610cf39190611ea3565b925050819055503373ffffffffffffffffffffffffffffffffffffffff16837f22590de65d3e83a1efa3280a42f602febd1dfb187e10efcb13965b1bafc68fbc60405160405180910390a35050610d48611868565b50565b60025481565b60008060149054906101000a900460ff16905090565b610d6f611883565b610d796000611a10565b565b60008060009054906101000a900473ffffffffffffffffffffffffffffffffffffffff16905090565b6202a30081565b610db3611845565b6000600460003373ffffffffffffffffffffffffffffffffffffffff1673ffffffffffffffffffffffffffffffffffffffff16815260200190815260200160002054905060008103610e31576040517ff4d678b800000000000000000000000000000000000000000000000000000000815260040160405180910390fd5b6000600460003373ffffffffffffffffffffffffffffffffffffffff1673ffffffffffffffffffffffffffffffffffffffff1681526020019081526020016000208190555060003373ffffffffffffffffffffffffffffffffffffffff1682604051610e9c90611f08565b60006040518083038185875af1925050503d8060008114610ed9576040519150601f19603f3d011682016040523d82523d6000602084013e610ede565b606091505b5050905080610f22576040517f08c379a0000000000000000000000000000000000000000000000000000000008152600401610f1990611f7a565b60405180910390fd5b3373ffffffffffffffffffffffffffffffffffffffff167fff12809415c01c2cf89ed7c318b357cb402d1ce96537d1592e9966b4f425e4d483604051610f689190611d6f565b60405180910390a25050610f7a611868565b565b610f84611883565b610f8c611845565b600060036000848152602001908152602001600020905060026004811115610fb757610fb6611c89565b5b8160040160009054906101000a900460ff166004811115610fdb57610fda611c89565b5b14611012576040517ff525e32000000000000000000000000000000000000000000000000000000000815260040160405180910390fd5b8060000154821115611050576040517faa7feadc00000000000000000000000000000000000000000000000000000000815260040160405180910390fd5b600081600301548260020160149054906101000a900465ffffffffffff1665ffffffffffff166110809190611ea3565b905060008183600201601a9054906101000a900465ffffffffffff1665ffffffffffff1611156110ec5760008284600201601a9054906101000a900465ffffffffffff1665ffffffffffff166110d69190611f9a565b90508360010154816110e89190611fce565b9150505b600084826110fa9190611ea3565b9050600084600001548211156111165784600001549150611129565b8185600001546111269190611f9a565b90505b60038560040160006101000a81548160ff0219169083600481111561115157611150611c89565b5b02179055508160046000611163610d7b565b73ffffffffffffffffffffffffffffffffffffffff1673ffffffffffffffffffffffffffffffffffffffff16815260200190815260200160002060008282546111ac9190611ea3565b9250508190555080600460008760020160009054906101000a900473ffffffffffffffffffffffffffffffffffffffff1673ffffffffffffffffffffffffffffffffffffffff1673ffffffffffffffffffffffffffffffffffffffff16815260200190815260200160002060008282546112269190611ea3565b92505081905550867ff1055a66ec02beec68fc5b35f6e986041900ebaef7b37cea35db02354251cea5838360405161125f929190612010565b60405180910390a25050505050611274611868565b5050565b611280611883565b600073ffffffffffffffffffffffffffffffffffffffff168173ffffffffffffffffffffffffffffffffffffffff16036112e6576040517ff6b2911f00000000000000000000000000000000000000000000000000000000815260040160405180910390fd5b6000600160009054906101000a900473ffffffffffffffffffffffffffffffffffffffff16905081600160006101000a81548173ffffffffffffffffffffffffffffffffffffffff021916908373ffffffffffffffffffffffffffffffffffffffff1602179055508173ffffffffffffffffffffffffffffffffffffffff168173ffffffffffffffffffffffffffffffffffffffff167f2f15fbf5e5cb83c683bccc56f4befaba328796f99ba44631dc7067ddf8218a1460405160405180910390a35050565b60046020528060005260406000206000915090505481565b600160009054906101000a900473ffffffffffffffffffffffffffffffffffffffff1673ffffffffffffffffffffffffffffffffffffffff163373ffffffffffffffffffffffffffffffffffffffff161461144b576040517f80fee10500000000000000000000000000000000000000000000000000000000815260040160405180910390fd5b6114536119cf565b60006003600083815260200190815260200160002090506000600481111561147e5761147d611c89565b5b8160040160009054906101000a900460ff1660048111156114a2576114a1611c89565b5b146114d9576040517ff525e32000000000000000000000000000000000000000000000000000000000815260040160405180910390fd5b428160020160146101000a81548165ffffffffffff021916908365ffffffffffff16021790555060018160040160006101000a81548160ff0219169083600481111561152857611527611c89565b5b0217905550817fa1b917e7b2f47808acb93469d4be218539b17a4cd31d302ddf391efe7d372d3d4260405161155d9190611d6f565b60405180910390a25050565b62278d0081565b600061157a6119cf565b600034036115b4576040517faa7feadc00000000000000000000000000000000000000000000000000000000815260040160405180910390fd5b600260008154809291906115c790612039565b91905055506040518060e001604052803481526020018381526020013373ffffffffffffffffffffffffffffffffffffffff168152602001600065ffffffffffff168152602001600065ffffffffffff1681526020018481526020016000600481111561163757611636611c89565b5b815250600360006002548152602001908152602001600020600082015181600001556020820151816001015560408201518160020160006101000a81548173ffffffffffffffffffffffffffffffffffffffff021916908373ffffffffffffffffffffffffffffffffffffffff16021790555060608201518160020160146101000a81548165ffffffffffff021916908365ffffffffffff160217905550608082015181600201601a6101000a81548165ffffffffffff021916908365ffffffffffff16021790555060a0820151816003015560c08201518160040160006101000a81548160ff0219169083600481111561173557611734611c89565b5b02179055509050503373ffffffffffffffffffffffffffffffffffffffff166002547fca7e401818e46f3f45d463ead362dee45a1bf117d7d8608e279e58c45040a7c2346040516117869190611d6f565b60405180910390a3600254905092915050565b6117a1611883565b600073ffffffffffffffffffffffffffffffffffffffff168173ffffffffffffffffffffffffffffffffffffffff16036118135760006040517f1e4fbdf700000000000000000000000000000000000000000000000000000000815260040161180a9190611dc0565b60405180910390fd5b61181c81611a10565b50565b600160009054906101000a900473ffffffffffffffffffffffffffffffffffffffff1681565b61184d611ad4565b600261185f61185a611b15565b611b40565b60000181905550565b600161187a611875611b15565b611b40565b60000181905550565b61188b611b4a565b73ffffffffffffffffffffffffffffffffffffffff166118a9610d7b565b73ffffffffffffffffffffffffffffffffffffffff1614611908576118cc611b4a565b6040517f118cdaa70000000000000000000000000000000000000000000000000000000081526004016118ff9190611dc0565b60405180910390fd5b565b6119126119cf565b6001600060146101000a81548160ff0219169083151502179055507f62e78cea01bee320cd4e420270b5ea74000d11b0c9f74754ebdbfc544b05a258611956611b4a565b6040516119639190611dc0565b60405180910390a1565b611975611b52565b60008060146101000a81548160ff0219169083151502179055507f5db9ee0a495bf2e6ff9c91a7834c1ba4fdd244a5e8aa4e537bd38aeae4b073aa6119b8611b4a565b6040516119c59190611dc0565b60405180910390a1565b6119d7610d51565b15611a0e576040517fd93c066500000000000000000000000000000000000000000000000000000000815260040160405180910390fd5b565b60008060009054906101000a900473ffffffffffffffffffffffffffffffffffffffff169050816000806101000a81548173ffffffffffffffffffffffffffffffffffffffff021916908373ffffffffffffffffffffffffffffffffffffffff1602179055508173ffffffffffffffffffffffffffffffffffffffff168173ffffffffffffffffffffffffffffffffffffffff167f8be0079c531659141344cd1fd0a4f28419497f9722a3daafe3b4186f6b6457e060405160405180910390a35050565b611adc611b92565b15611b13576040517f3ee5aeb500000000000000000000000000000000000000000000000000000000815260040160405180910390fd5b565b60007f9b779b17422d0df92223018b32b4d1fa46e071723d6817e2486d003becc55f0060001b905090565b6000819050919050565b600033905090565b611b5a610d51565b611b90576040517f8dfc202b00000000000000000000000000000000000000000000000000000000815260040160405180910390fd5b565b60006002611ba6611ba1611b15565b611b40565b6000015414905090565b600080fd5b6000819050919050565b611bc881611bb5565b8114611bd357600080fd5b50565b600081359050611be581611bbf565b92915050565b600060208284031215611c0157611c00611bb0565b5b6000611c0f84828501611bd6565b91505092915050565b611c2181611bb5565b82525050565b600073ffffffffffffffffffffffffffffffffffffffff82169050919050565b6000611c5282611c27565b9050919050565b611c6281611c47565b82525050565b600065ffffffffffff82169050919050565b611c8381611c68565b82525050565b7f4e487b7100000000000000000000000000000000000000000000000000000000600052602160045260246000fd5b60058110611cc957611cc8611c89565b5b50565b6000819050611cda82611cb8565b919050565b6000611cea82611ccc565b9050919050565b611cfa81611cdf565b82525050565b600060e082019050611d15600083018a611c18565b611d226020830189611c18565b611d2f6040830188611c59565b611d3c6060830187611c7a565b611d496080830186611c7a565b611d5660a0830185611c18565b611d6360c0830184611cf1565b98975050505050505050565b6000602082019050611d846000830184611c18565b92915050565b60008115159050919050565b611d9f81611d8a565b82525050565b6000602082019050611dba6000830184611d96565b92915050565b6000602082019050611dd56000830184611c59565b92915050565b60008060408385031215611df257611df1611bb0565b5b6000611e0085828601611bd6565b9250506020611e1185828601611bd6565b9150509250929050565b611e2481611c47565b8114611e2f57600080fd5b50565b600081359050611e4181611e1b565b92915050565b600060208284031215611e5d57611e5c611bb0565b5b6000611e6b84828501611e32565b91505092915050565b7f4e487b7100000000000000000000000000000000000000000000000000000000600052601160045260246000fd5b6000611eae82611bb5565b9150611eb983611bb5565b9250828201905080821115611ed157611ed0611e74565b5b92915050565b600081905092915050565b50565b6000611ef2600083611ed7565b9150611efd82611ee2565b600082019050919050565b6000611f1382611ee5565b9150819050919050565b600082825260208201905092915050565b7f5472616e73666572206661696c65640000000000000000000000000000000000600082015250565b6000611f64600f83611f1d565b9150611f6f82611f2e565b602082019050919050565b60006020820190508181036000830152611f9381611f57565b9050919050565b6000611fa582611bb5565b9150611fb083611bb5565b9250828203905081811115611fc857611fc7611e74565b5b92915050565b6000611fd982611bb5565b9150611fe483611bb5565b9250828202611ff281611bb5565b9150828204841483151761200957612008611e74565b5b5092915050565b60006040820190506120256000830185611c18565b6120326020830184611c18565b9392505050565b600061204482611bb5565b91507fffffffffffffffffffffffffffffffffffffffffffffffffffffffffffffffff820361207657612075611e74565b5b60018201905091905056fea26469706673582212207d3af16319c850c5c50c584022ee2b21b53df2e2dd80c3ab97b58fad5527471964736f6c63430008140033",
  "linkReferences": {},
  "deployedLinkReferences": {}
}