{
  "_format": "hh-sol-artifact-1",
  "contractName": "BipTrustTest",
  "sourceName": "contracts/BipTrustTest.sol",
  "abi": [
    {
      "inputs": [
        {
          "internalType": "address",
          "name": "_oracleIoT",
          "type": "address"
        }
      ],
      "stateMutability": "nonpayable",
      "type": "constructor"
    },
    {
      "inputs": [],
      "name": "InsufficientBalance",
      "type": "error"
    },
    {
      "inputs": [],
      "name": "InvalidStatus",
      "type": "error"
    },
    {
      "inputs": [],
      "name": "InvalidValue",
      "type": "error"
    },
    {
      "inputs": [],
      "name": "InvalidZeroAddress",
      "type": "error"
    },
    {
      "inputs": [],
      "name": "OnlyClient",
      "type": "error"
    },
    {
      "inputs": [],
      "name": "OnlyOracle",
      "type": "error"
    },
    {
      "inputs": [
        {
          "internalType": "address",
          "name": "owner",
          "type": "address"
        }
      ],
      "name": "OwnableInvalidOwner",
      "type": "error"
    },
    {
      "inputs": [
        {
          "internalType": "address",
          "name": "account",
          "type": "address"
        }
      ],
      "name": "OwnableUnauthorizedAccount",
      "type": "error"
    },
    {
      "inputs": [],
      "name": "ReentrancyGuardReentrantCall",
      "type": "error"
    },
    {
      "anonymous": false,
      "inputs": [
        {
          "indexed": true,
          "internalType": "uint256",
          "name": "id",
          "type": "uint256"
        },
        {
          "indexed": true,
          "internalType": "address",
          "name": "cliente",
          "type": "address"
        },
        {
          "indexed": false,
          "internalType": "uint256",
          "name": "valorCaucao",
          "type": "uint256"
        }
      ],
      "name": "AluguelCriado",
      "type": "event"
    },
    {
      "anonymous": false,
      "inputs": [
        {
          "indexed": true,
          "internalType": "uint256",
          "name": "id",
          "type": "uint256"
        },
        {
          "indexed": false,
          "internalType": "uint256",
          "name": "timestampDevolucao",
          "type": "uint256"
        }
      ],
      "name": "DevolucaoRegistrada",
      "type": "event"
    },
    {
      "anonymous": false,
      "inputs": [
        {
          "indexed": true,
          "internalType": "address",
          "name": "oracleAntigo",
          "type": "address"
        },
        {
          "indexed": true,
          "internalType": "address",
          "name": "oracleNovo",
          "type": "address"
        }
      ],
      "name": "OracleAtualizado",
      "type": "event"
    },
    {
      "anonymous": false,
      "inputs": [
        {
          "indexed": true,
          "internalType": "address",
          "name": "previousOwner",
          "type": "address"
        },
        {
          "indexed": true,
          "internalType": "address",
          "name": "newOwner",
          "type": "address"
        }
      ],
      "name": "OwnershipTransferred",
      "type": "event"
    },
    {
      "anonymous": false,
      "inputs": [
        {
          "indexed": true,
          "internalType": "uint256",
          "name": "id",
          "type": "uint256"
        },
        {
          "indexed": false,
          "internalType": "uint256",
          "name": "timestampRetirada",
          "type": "uint256"
        }
      ],
      "name": "RetiradaRegistrada",
      "type": "event"
    },
    {
      "anonymous": false,
      "inputs": [
        {
          "indexed": true,
          "internalType": "address",
          "name": "usuario",
          "type": "address"
        },
        {
          "indexed": false,
          "internalType": "uint256",
          "name": "valor",
          "type": "uint256"
        }
      ],
      "name": "SaqueRealizado",
      "type": "event"
    },
    {
      "anonymous": false,
      "inputs": [
        {
          "indexed": true,
          "internalType": "uint256",
          "name": "id",
          "type": "uint256"
        },
        {
          "indexed": false,
          "internalType": "uint256",
          "name": "retidoLocadora",
          "type": "uint256"
        },
        {
          "indexed": false,
          "internalType": "uint256",
          "name": "liberadoCliente",
          "type": "uint256"
        }
      ],
      "name": "VistoriaConfirmada",
      "type": "event"
    },
    {
      "inputs": [
        {
          "internalType": "uint256",
          "name": "",
          "type": "uint256"
        }
      ],
      "name": "alugueis",
      "outputs": [
        {
          "internalType": "uint256",
          "name": "valorCaucao",
          "type": "uint256"
        },
        {
          "internalType": "address",
          "name": "cliente",
          "type": "address"
        },
        {
          "internalType": "uint48",
          "name": "timestampRetirada",
          "type": "uint48"
        },
        {
          "internalType": "uint48",
          "name": "timestampDevolucao",
          "type": "uint48"
        },
        {
          "internalType": "enum BipTrustTest.Status",
          "name": "statusAtual",
          "type": "uint8"
        }
      ],
      "stateMutability": "view",
      "type": "function"
    },
    {
      "inputs": [
        {
          "internalType": "address",
          "name": "_novoOracle",
          "type": "address"
        }
      ],
      "name": "atualizarOracle",
      "outputs": [],
      "stateMutability": "nonpayable",
      "type": "function"
    },
    {
      "inputs": [
        {
          "internalType": "uint256",
          "name": "_id",
          "type": "uint256"
        },
        {
          "internalType": "uint256",
          "name": "_custoDanos",
          "type": "uint256"
        }
      ],
      "name": "confirmarVistoria",
      "outputs": [],
      "stateMutability": "nonpayable",
      "type": "function"
    },
    {
      "inputs": [],
      "name": "contadorAlugueis",
      "outputs": [
        {
          "internalType": "uint256",
          "name": "",
          "type": "uint256"
        }
      ],
      "stateMutability": "view",
      "type": "function"
    },
    {
      "inputs": [
        {
          "internalType": "uint256",
          "name": "_duracaoEmSegundos",
          "type": "uint256"
        },
        {
          "internalType": "uint256",
          "name": "_multaPorSegundo",
          "type": "uint256"
        }
      ],
      "name": "criarAluguel",
      "outputs": [
        {
          "internalType": "uint256",
          "name": "",
          "type": "uint256"
        }
      ],
      "stateMutability": "payable",
      "type": "function"
    },
    {
      "inputs": [],
      "name": "oracleIoT",
      "outputs": [
        {
          "internalType": "address",
          "name": "",
          "type": "address"
        }
      ],
      "stateMutability": "view",
      "type": "function"
    },
    {
      "inputs": [],
      "name": "owner",
      "outputs": [
        {
          "internalType": "address",
          "name": "",
          "type": "address"
        }
      ],
      "stateMutability": "view",
      "type": "function"
    },
    {
      "inputs": [
        {
          "internalType": "uint256",
          "name": "_id",
          "type": "uint256"
        }
      ],
      "name": "registrarDevolucao",
      "outputs": [],
      "stateMutability": "nonpayable",
      "type": "function"
    },
    {
      "inputs": [
        {
          "internalType": "uint256",
          "name": "_id",
          "type": "uint256"
        }
      ],
      "name": "registrarRetirada",
      "outputs": [],
      "stateMutability": "nonpayable",
      "type": "function"
    },
    {
      "inputs": [],
      "name": "renounceOwnership",
      "outputs": [],
      "stateMutability": "nonpayable",
      "type": "function"
    },
    {
      "inputs": [],
      "name": "sacar",
      "outputs": [],
      "stateMutability": "nonpayable",
      "type": "function"
    },
    {
      "inputs": [
        {
          "internalType": "address",
          "name": "",
          "type": "address"
        }
      ],
      "name": "saldos",
      "outputs": [
        {
          "internalType": "uint256",
          "name": "",
          "type": "uint256"
        }
      ],
      "stateMutability": "view",
      "type": "function"
    },
    {
      "inputs": [
        {
          "internalType": "address",
          "name": "newOwner",
          "type": "address"
        }
      ],
      "name": "transferOwnership",
      "outputs": [],
      "stateMutability": "nonpayable",
      "type": "function"
    }
  ],
  "bytecode": "0x60806040523480156200001157600080fd5b50604051620018fa380380620018fa8339818101604052810190620000379190620002fa565b33600073ffffffffffffffffffffffffffffffffffffffff168173ffffffffffffffffffffffffffffffffffffffff1603620000ad5760006040517f1e4fbdf7000000000000000000000000000000000000000000000000000000008152600401620000a491906200033d565b60405180910390fd5b620000be816200019760201b60201c565b506001620000e1620000d56200025b60201b60201c565b6200028660201b60201c565b60000181905550600073ffffffffffffffffffffffffffffffffffffffff168173ffffffffffffffffffffffffffffffffffffffff16036200014f576040517ff6b2911f00000000000000000000000000000000000000000000000000000000815260040160405180910390fd5b80600160006101000a81548173ffffffffffffffffffffffffffffffffffffffff021916908373ffffffffffffffffffffffffffffffffffffffff160217905550506200035a565b60008060009054906101000a900473ffffffffffffffffffffffffffffffffffffffff169050816000806101000a81548173ffffffffffffffffffffffffffffffffffffffff021916908373ffffffffffffffffffffffffffffffffffffffff1602179055508173ffffffffffffffffffffffffffffffffffffffff168173ffffffffffffffffffffffffffffffffffffffff167f8be0079c531659141344cd1fd0a4f28419497f9722a3daafe3b4186f6b6457e060405160405180910390a35050565b60007f9b779b17422d0df92223018b32b4d1fa46e071723d6817e2486d003becc55f0060001b905090565b6000819050919050565b600080fd5b600073ffffffffffffffffffffffffffffffffffffffff82169050919050565b6000620002c28262000295565b9050919050565b620002d481620002b5565b8114620002e057600080fd5b50565b600081519050620002f481620002c9565b92915050565b60006020828403121562000313576200031262000290565b5b60006200032384828501620002e3565b91505092915050565b6200033781620002b5565b82525050565b60006020820190506200035460008301846200032c565b92915050565b611590806200036a6000396000f3fe6080604052600436106100c25760003560e01c8063a5a883391161007f578063ccad948611610059578063ccad948614610244578063f1c7db1f1461026d578063f2fde38b1461029d578063ffd21e2c146102c6576100c2565b8063a5a88339146101b5578063bf274aaf146101de578063c68c061214610207576100c2565b8063166c1cfb146100c7578063427d05491461010857806352fb63a814610131578063715018a61461015c5780638da5cb5b14610173578063a51068c81461019e575b600080fd5b3480156100d357600080fd5b506100ee60048036038101906100e99190611158565b6102f1565b6040516100ff95949392919061126d565b60405180910390f35b34801561011457600080fd5b5061012f600480360381019061012a9190611158565b610378565b005b34801561013d57600080fd5b50610146610515565b60405161015391906112c0565b60405180910390f35b34801561016857600080fd5b5061017161051b565b005b34801561017f57600080fd5b5061018861052f565b60405161019591906112db565b60405180910390f35b3480156101aa57600080fd5b506101b3610558565b005b3480156101c157600080fd5b506101dc60048036038101906101d791906112f6565b610729565b005b3480156101ea57600080fd5b5061020560048036038101906102009190611362565b610963565b005b34801561021357600080fd5b5061022e60048036038101906102299190611362565b610a97565b60405161023b91906112c0565b60405180910390f35b34801561025057600080fd5b5061026b60048036038101906102669190611158565b610aaf565b005b610287600480360381019061028291906112f6565b610c4c565b60405161029491906112c0565b60405180910390f35b3480156102a957600080fd5b506102c460048036038101906102bf9190611362565b610e4c565b005b3480156102d257600080fd5b506102db610ed2565b6040516102e891906112db565b60405180910390f35b60036020528060005260406000206000915090508060000154908060010160009054906101000a900473ffffffffffffffffffffffffffffffffffffffff16908060010160149054906101000a900465ffffffffffff169080600101601a9054906101000a900465ffffffffffff16908060020160009054906101000a900460ff16905085565b600160009054906101000a900473ffffffffffffffffffffffffffffffffffffffff1673ffffffffffffffffffffffffffffffffffffffff163373ffffffffffffffffffffffffffffffffffffffff16146103ff576040517f80fee10500000000000000000000000000000000000000000000000000000000815260040160405180910390fd5b60006003600083815260200190815260200160002090506001600481111561042a576104296111f6565b5b8160020160009054906101000a900460ff16600481111561044e5761044d6111f6565b5b14610485576040517ff525e32000000000000000000000000000000000000000000000000000000000815260040160405180910390fd5b4281600101601a6101000a81548165ffffffffffff021916908365ffffffffffff16021790555060028160020160006101000a81548160ff021916908360048111156104d4576104d36111f6565b5b0217905550817fbad34a29de6ce4ae1aea706e5971a3aab5097391b794fff78627feddec9a01914260405161050991906112c0565b60405180910390a25050565b60025481565b610523610ef8565b61052d6000610f7f565b565b60008060009054906101000a900473ffffffffffffffffffffffffffffffffffffffff16905090565b610560611043565b6000600460003373ffffffffffffffffffffffffffffffffffffffff1673ffffffffffffffffffffffffffffffffffffffff168152602001908152602001600020549050600081036105de576040517ff4d678b800000000000000000000000000000000000000000000000000000000815260040160405180910390fd5b6000600460003373ffffffffffffffffffffffffffffffffffffffff1673ffffffffffffffffffffffffffffffffffffffff1681526020019081526020016000208190555060003373ffffffffffffffffffffffffffffffffffffffff1682604051610649906113c0565b60006040518083038185875af1925050503d8060008114610686576040519150601f19603f3d011682016040523d82523d6000602084013e61068b565b606091505b50509050806106cf576040517f08c379a00000000000000000000000000000000000000000000000000000000081526004016106c690611432565b60405180910390fd5b3373ffffffffffffffffffffffffffffffffffffffff167fff12809415c01c2cf89ed7c318b357cb402d1ce96537d1592e9966b4f425e4d48360405161071591906112c0565b60405180910390a25050610727611066565b565b610731610ef8565b610739611043565b600060036000848152602001908152602001600020905060026004811115610764576107636111f6565b5b8160020160009054906101000a900460ff166004811115610788576107876111f6565b5b146107bf576040517ff525e32000000000000000000000000000000000000000000000000000000000815260040160405180910390fd5b80600001548211156107fd576040517faa7feadc00000000000000000000000000000000000000000000000000000000815260040160405180910390fd5b600082905060008183600001546108149190611481565b905060038360020160006101000a81548160ff0219169083600481111561083e5761083d6111f6565b5b0217905550816004600061085061052f565b73ffffffffffffffffffffffffffffffffffffffff1673ffffffffffffffffffffffffffffffffffffffff168152602001908152602001600020600082825461089991906114b5565b9250508190555080600460008560010160009054906101000a900473ffffffffffffffffffffffffffffffffffffffff1673ffffffffffffffffffffffffffffffffffffffff1673ffffffffffffffffffffffffffffffffffffffff168152602001908152602001600020600082825461091391906114b5565b92505081905550847ff1055a66ec02beec68fc5b35f6e986041900ebaef7b37cea35db02354251cea5838360405161094c9291906114e9565b60405180910390a250505061095f611066565b5050565b61096b610ef8565b600073ffffffffffffffffffffffffffffffffffffffff168173ffffffffffffffffffffffffffffffffffffffff16036109d1576040517ff6b2911f00000000000000000000000000000000000000000000000000000000815260040160405180910390fd5b6000600160009054906101000a900473ffffffffffffffffffffffffffffffffffffffff16905081600160006101000a81548173ffffffffffffffffffffffffffffffffffffffff021916908373ffffffffffffffffffffffffffffffffffffffff1602179055508173ffffffffffffffffffffffffffffffffffffffff168173ffffffffffffffffffffffffffffffffffffffff167f2f15fbf5e5cb83c683bccc56f4befaba328796f99ba44631dc7067ddf8218a1460405160405180910390a35050565b60046020528060005260406000206000915090505481565b600160009054906101000a900473ffffffffffffffffffffffffffffffffffffffff1673ffffffffffffffffffffffffffffffffffffffff163373ffffffffffffffffffffffffffffffffffffffff1614610b36576040517f80fee10500000000000000000000000000000000000000000000000000000000815260040160405180910390fd5b600060036000838152602001908152602001600020905060006004811115610b6157610b606111f6565b5b8160020160009054906101000a900460ff166004811115610b8557610b846111f6565b5b14610bbc576040517ff525e32000000000000000000000000000000000000000000000000000000000815260040160405180910390fd5b428160010160146101000a81548165ffffffffffff021916908365ffffffffffff16021790555060018160020160006101000a81548160ff02191690836004811115610c0b57610c0a6111f6565b5b0217905550817fa1b917e7b2f47808acb93469d4be218539b17a4cd31d302ddf391efe7d372d3d42604051610c4091906112c0565b60405180910390a25050565b6000803403610c87576040517faa7feadc00000000000000000000000000000000000000000000000000000000815260040160405180910390fd5b60026000815480929190610c9a90611512565b91905055506040518060a001604052803481526020013373ffffffffffffffffffffffffffffffffffffffff168152602001600065ffffffffffff168152602001600065ffffffffffff16815260200160006004811115610cfe57610cfd6111f6565b5b8152506003600060025481526020019081526020016000206000820151816000015560208201518160010160006101000a81548173ffffffffffffffffffffffffffffffffffffffff021916908373ffffffffffffffffffffffffffffffffffffffff16021790555060408201518160010160146101000a81548165ffffffffffff021916908365ffffffffffff160217905550606082015181600101601a6101000a81548165ffffffffffff021916908365ffffffffffff16021790555060808201518160020160006101000a81548160ff02191690836004811115610de857610de76111f6565b5b02179055509050503373ffffffffffffffffffffffffffffffffffffffff166002547fca7e401818e46f3f45d463ead362dee45a1bf117d7d8608e279e58c45040a7c234604051610e3991906112c0565b60405180910390a3600254905092915050565b610e54610ef8565b600073ffffffffffffffffffffffffffffffffffffffff168173ffffffffffffffffffffffffffffffffffffffff1603610ec65760006040517f1e4fbdf7000000000000000000000000000000000000000000000000000000008152600401610ebd91906112db565b60405180910390fd5b610ecf81610f7f565b50565b600160009054906101000a900473ffffffffffffffffffffffffffffffffffffffff1681565b610f00611081565b73ffffffffffffffffffffffffffffffffffffffff16610f1e61052f565b73ffffffffffffffffffffffffffffffffffffffff1614610f7d57610f41611081565b6040517f118cdaa7000000000000000000000000000000000000000000000000000000008152600401610f7491906112db565b60405180910390fd5b565b60008060009054906101000a900473ffffffffffffffffffffffffffffffffffffffff169050816000806101000a81548173ffffffffffffffffffffffffffffffffffffffff021916908373ffffffffffffffffffffffffffffffffffffffff1602179055508173ffffffffffffffffffffffffffffffffffffffff168173ffffffffffffffffffffffffffffffffffffffff167f8be0079c531659141344cd1fd0a4f28419497f9722a3daafe3b4186f6b6457e060405160405180910390a35050565b61104b611089565b600261105d6110586110ca565b6110f5565b60000181905550565b60016110786110736110ca565b6110f5565b60000181905550565b600033905090565b6110916110ff565b156110c8576040517f3ee5aeb500000000000000000000000000000000000000000000000000000000815260040160405180910390fd5b565b60007f9b779b17422d0df92223018b32b4d1fa46e071723d6817e2486d003becc55f0060001b905090565b6000819050919050565b6000600261111361110e6110ca565b6110f5565b6000015414905090565b600080fd5b6000819050919050565b61113581611122565b811461114057600080fd5b50565b6000813590506111528161112c565b92915050565b60006020828403121561116e5761116d61111d565b5b600061117c84828501611143565b91505092915050565b61118e81611122565b82525050565b600073ffffffffffffffffffffffffffffffffffffffff82169050919050565b60006111bf82611194565b9050919050565b6111cf816111b4565b82525050565b600065ffffffffffff82169050919050565b6111f0816111d5565b82525050565b7f4e487b7100000000000000000000000000000000000000000000000000000000600052602160045260246000fd5b60058110611236576112356111f6565b5b50565b600081905061124782611225565b919050565b600061125782611239565b9050919050565b6112678161124c565b82525050565b600060a0820190506112826000830188611185565b61128f60208301876111c6565b61129c60408301866111e7565b6112a960608301856111e7565b6112b6608083018461125e565b9695505050505050565b60006020820190506112d56000830184611185565b92915050565b60006020820190506112f060008301846111c6565b92915050565b6000806040838503121561130d5761130c61111d565b5b600061131b85828601611143565b925050602061132c85828601611143565b9150509250929050565b61133f816111b4565b811461134a57600080fd5b50565b60008135905061135c81611336565b92915050565b6000602082840312156113785761137761111d565b5b60006113868482850161134d565b91505092915050565b600081905092915050565b50565b60006113aa60008361138f565b91506113b58261139a565b600082019050919050565b60006113cb8261139d565b9150819050919050565b600082825260208201905092915050565b7f5472616e73666572206661696c65640000000000000000000000000000000000600082015250565b600061141c600f836113d5565b9150611427826113e6565b602082019050919050565b6000602082019050818103600083015261144b8161140f565b9050919050565b7f4e487b7100000000000000000000000000000000000000000000000000000000600052601160045260246000fd5b600061148c82611122565b915061149783611122565b92508282039050818111156114af576114ae611452565b5b92915050565b60006114c082611122565b91506114cb83611122565b92508282019050808211156114e3576114e2611452565b5b92915050565b60006040820190506114fe6000830185611185565b61150b6020830184611185565b9392505050565b600061151d82611122565b91507fffffffffffffffffffffffffffffffffffffffffffffffffffffffffffffffff820361154f5761154e611452565b5b60018201905091905056fea26469706673582212208bd5b340a46c2d22fa6af9e359483356c372730e961c8836581199f183a9c72b64736f6c63430008140033",
  "linkReferences": {},
  "deployedLinkReferences": {}
}